{
  "contractName": "FastCoin",
  "abi": [
    {
      "inputs": [],
      "stateMutability": "nonpayable",
      "type": "constructor"
    },
    {
      "anonymous": false,
      "inputs": [
        {
          "indexed": true,
          "internalType": "address",
          "name": "owner",
          "type": "address"
        },
        {
          "indexed": true,
          "internalType": "address",
          "name": "sender",
          "type": "address"
        },
        {
          "indexed": false,
          "internalType": "uint256",
          "name": "amount",
          "type": "uint256"
        }
      ],
      "name": "Approval",
      "type": "event"
    },
    {
      "anonymous": false,
      "inputs": [
        {
          "indexed": true,
          "internalType": "address",
          "name": "from",
          "type": "address"
        },
        {
          "indexed": true,
          "internalType": "address",
          "name": "to",
          "type": "address"
        },
        {
          "indexed": false,
          "internalType": "uint256",
          "name": "",
          "type": "uint256"
        }
      ],
      "name": "Transfer",
      "type": "event"
    },
    {
      "inputs": [],
      "name": "totalSupply",
      "outputs": [
        {
          "internalType": "uint256",
          "name": "",
          "type": "uint256"
        }
      ],
      "stateMutability": "view",
      "type": "function",
      "constant": true
    },
    {
      "inputs": [
        {
          "internalType": "address",
          "name": "account",
          "type": "address"
        }
      ],
      "name": "balanceOf",
      "outputs": [
        {
          "internalType": "uint256",
          "name": "",
          "type": "uint256"
        }
      ],
      "stateMutability": "view",
      "type": "function",
      "constant": true
    },
    {
      "inputs": [
        {
          "internalType": "address",
          "name": "recepient",
          "type": "address"
        },
        {
          "internalType": "uint256",
          "name": "amount",
          "type": "uint256"
        }
      ],
      "name": "transfer",
      "outputs": [
        {
          "internalType": "bool",
          "name": "",
          "type": "bool"
        }
      ],
      "stateMutability": "nonpayable",
      "type": "function"
    },
    {
      "inputs": [
        {
          "internalType": "address",
          "name": "spender",
          "type": "address"
        },
        {
          "internalType": "uint256",
          "name": "amount",
          "type": "uint256"
        }
      ],
      "name": "approval",
      "outputs": [
        {
          "internalType": "bool",
          "name": "",
          "type": "bool"
        }
      ],
      "stateMutability": "nonpayable",
      "type": "function"
    },
    {
      "inputs": [
        {
          "internalType": "address",
          "name": "owner",
          "type": "address"
        },
        {
          "internalType": "address",
          "name": "spender",
          "type": "address"
        }
      ],
      "name": "allowance",
      "outputs": [
        {
          "internalType": "uint256",
          "name": "",
          "type": "uint256"
        }
      ],
      "stateMutability": "view",
      "type": "function",
      "constant": true
    },
    {
      "inputs": [
        {
          "internalType": "address",
          "name": "sender",
          "type": "address"
        },
        {
          "internalType": "address",
          "name": "recepient",
          "type": "address"
        },
        {
          "internalType": "uint256",
          "name": "amount",
          "type": "uint256"
        }
      ],
      "name": "transferFrom",
      "outputs": [
        {
          "internalType": "bool",
          "name": "",
          "type": "bool"
        }
      ],
      "stateMutability": "nonpayable",
      "type": "function"
    }
  ],
  "bytecode": "0x608060405268056bc75e2d6310000060005534801561001d57600080fd5b506000805433825260016020526040822080549192909161003f90849061004a565b909155506100709050565b6000821982111561006b57634e487b7160e01b600052601160045260246000fd5b500190565b6105bb8061007f6000396000f3fe608060405234801561001057600080fd5b50600436106100625760003560e01c806318160ddd1461006757806323b872dd1461007e57806370a08231146100a157806375247a58146100ca578063a9059cbb146100dd578063dd62ed3e146100f0575b600080fd5b6000545b6040519081526020015b60405180910390f35b61009161008c366004610485565b610129565b6040519015158152602001610075565b61006b6100af3660046104c1565b6001600160a01b031660009081526001602052604090205490565b6100916100d83660046104e3565b6102d4565b6100916100eb3660046104e3565b610388565b61006b6100fe36600461050d565b6001600160a01b03918216600090815260026020908152604080832093909416825291909152205490565b6001600160a01b0383166000908152600160205260408120548211156101865760405162461bcd60e51b815260206004820152600d60248201526c66756e647320617265206c6f7760981b60448201526064015b60405180910390fd5b6001600160a01b03841660009081526002602090815260408083203384529091529020548211156101e95760405162461bcd60e51b815260206004820152600d60248201526c66756e647320617265206c6f7760981b604482015260640161017d565b6001600160a01b03841660009081526001602052604081208054849290610211908490610556565b90915550506001600160a01b0383166000908152600160205260408120805484929061023e90849061056d565b90915550506001600160a01b038416600090815260026020908152604080832033845290915281208054849290610276908490610556565b92505081905550826001600160a01b0316846001600160a01b03167fddf252ad1be2c89b69c2b068fc378daa952ba7f163c4a11628f55a4df523b3ef846040516102c291815260200190565b60405180910390a35060019392505050565b336000908152600160205260408120548211156103235760405162461bcd60e51b815260206004820152600d60248201526c46756e647320617265206c6f7760981b604482015260640161017d565b3360008181526002602090815260408083206001600160a01b03881680855290835292819020869055518581529192917f8c5be1e5ebec7d5bd14f71427d1e84f3dd0314c0f7b2291e5b200ac8c7c3b92591015b60405180910390a350600192915050565b336000908152600160205260408120548211156103db5760405162461bcd60e51b81526020600482015260116024820152705468652066756e647320617265206c6f7760781b604482015260640161017d565b33600090815260016020526040812080548492906103fa908490610556565b90915550506001600160a01b0383166000908152600160205260408120805484929061042790849061056d565b90915550506040518281526001600160a01b0384169033907fddf252ad1be2c89b69c2b068fc378daa952ba7f163c4a11628f55a4df523b3ef90602001610377565b80356001600160a01b038116811461048057600080fd5b919050565b60008060006060848603121561049a57600080fd5b6104a384610469565b92506104b160208501610469565b9150604084013590509250925092565b6000602082840312156104d357600080fd5b6104dc82610469565b9392505050565b600080604083850312156104f657600080fd5b6104ff83610469565b946020939093013593505050565b6000806040838503121561052057600080fd5b61052983610469565b915061053760208401610469565b90509250929050565b634e487b7160e01b600052601160045260246000fd5b60008282101561056857610568610540565b500390565b6000821982111561058057610580610540565b50019056fea2646970667358221220327e91e04db2b9bd0544c33868b09efbd453c94123bae1768b722e75f0edfcff64736f6c634300080b0033",
  "immutableReferences": {},
  "source": "//SPDX-License-Identifier: Unlicense\r\npragma solidity ^0.8.0;\r\n\r\ninterface ERC20 {\r\n    function totalSupply() external  view returns (uint256);\r\n    function balanceOf(address account) external view returns (uint256);\r\n    function transfer(address recepient, uint256 amount) external returns (bool);\r\n    function transferFrom(address sender,address recepient,uint256 amount) external  returns (bool);\r\n    function approval (address spender, uint256 amount) external returns (bool);\r\n    function allowance (address owner, address spender) external view returns (uint256);\r\n\r\n    event Transfer(address indexed from,address indexed to,uint256);\r\n    event Approval(address indexed owner,address indexed sender,uint256 amount);\r\n}\r\n\r\ncontract FastCoin is ERC20 {\r\n    uint myTokens = 100 * (10 ** 18);\r\n    mapping (address=>uint) private balance;\r\n    mapping (address=>mapping (address=>uint)) private approvalLimit;\r\n\r\n    constructor () {\r\n        balance[msg.sender] += myTokens;\r\n    }\r\n    function totalSupply() external view returns (uint256) {\r\n        return myTokens;\r\n    }\r\n    function balanceOf(address account) external view returns (uint256) {\r\n        return balance[account];\r\n    }\r\n\r\n    function transfer(address recepient, uint256 amount) external returns (bool){\r\n        require(balance[msg.sender]>=amount,\"The funds are low\");\r\n        balance[msg.sender] -= amount;\r\n        balance [recepient] += amount;\r\n        emit Transfer(msg.sender,recepient, amount);\r\n        return true;\r\n    }\r\n\r\n    function approval (address spender, uint256 amount) external returns (bool) {\r\n        require(balance[msg.sender] >=amount, \"Funds are low\");\r\n        approvalLimit[msg.sender][spender] = amount;\r\n        emit Approval(msg.sender,spender,amount);\r\n        return true;\r\n    }\r\n\r\n    function allowance (address owner, address spender) external view returns (uint256){\r\n        return approvalLimit[owner][spender];\r\n    }\r\n\r\n    function transferFrom(address sender,address recepient,uint256 amount) external  returns (bool) {\r\n        require(amount<=balance[sender], \"funds are low\");\r\n        require(amount <= approvalLimit[sender][msg.sender],\"funds are low\");\r\n        balance[sender] -= amount;\r\n        balance[recepient] += amount;\r\n        approvalLimit[sender][msg.sender] -= amount;\r\n        emit Transfer(sender,recepient,amount);\r\n        return true;\r\n    }\r\n\r\n\r\n    \r\n}",
  "sourcePath": "C:\\Users\\Hp OMEN\\Desktop\\FAST NU\\Semester 7\\Blockchain\\Project 2\\BlockChain_Project_02\\contracts\\FastCoin.sol",
  "compiler": {
    "name": "solc",
    "version": "0.8.11+commit.d7f03943.Emscripten.clang"
  },
  "schemaVersion": "3.4.16",
  "updatedAt": "2024-01-10T07:50:53.595Z",
  "networkType": "ethereum",
  "devdoc": {
    "kind": "dev",
    "methods": {},
    "version": 1
  },
  "userdoc": {
    "kind": "user",
    "methods": {},
    "version": 1
  }
}