{
  "contractName": "LoyaltyProgram",
  "abi": [
    {
      "inputs": [
        {
          "internalType": "address",
          "name": "_paymentcontract",
          "type": "address"
        }
      ],
      "stateMutability": "nonpayable",
      "type": "constructor"
    },
    {
      "anonymous": false,
      "inputs": [
        {
          "indexed": true,
          "internalType": "address",
          "name": "user",
          "type": "address"
        },
        {
          "indexed": false,
          "internalType": "uint256",
          "name": "points",
          "type": "uint256"
        }
      ],
      "name": "PointsEarned",
      "type": "event"
    },
    {
      "anonymous": false,
      "inputs": [
        {
          "indexed": true,
          "internalType": "address",
          "name": "user",
          "type": "address"
        },
        {
          "indexed": false,
          "internalType": "uint256",
          "name": "points",
          "type": "uint256"
        }
      ],
      "name": "PointsRedeemed",
      "type": "event"
    },
    {
      "anonymous": false,
      "inputs": [
        {
          "indexed": true,
          "internalType": "address",
          "name": "user",
          "type": "address"
        },
        {
          "indexed": false,
          "internalType": "uint256",
          "name": "newTier",
          "type": "uint256"
        }
      ],
      "name": "TierChanged",
      "type": "event"
    },
    {
      "inputs": [],
      "name": "owner",
      "outputs": [
        {
          "internalType": "address",
          "name": "",
          "type": "address"
        }
      ],
      "stateMutability": "view",
      "type": "function",
      "constant": true
    },
    {
      "inputs": [],
      "name": "payment",
      "outputs": [
        {
          "internalType": "address",
          "name": "",
          "type": "address"
        }
      ],
      "stateMutability": "view",
      "type": "function",
      "constant": true
    },
    {
      "inputs": [
        {
          "internalType": "address",
          "name": "",
          "type": "address"
        }
      ],
      "name": "users",
      "outputs": [
        {
          "internalType": "uint256",
          "name": "points",
          "type": "uint256"
        },
        {
          "internalType": "uint256",
          "name": "tier",
          "type": "uint256"
        }
      ],
      "stateMutability": "view",
      "type": "function",
      "constant": true
    },
    {
      "inputs": [
        {
          "internalType": "uint256",
          "name": "price",
          "type": "uint256"
        }
      ],
      "name": "earnPoints",
      "outputs": [],
      "stateMutability": "nonpayable",
      "type": "function"
    },
    {
      "inputs": [
        {
          "internalType": "uint256",
          "name": "points",
          "type": "uint256"
        }
      ],
      "name": "redeemPoints",
      "outputs": [],
      "stateMutability": "nonpayable",
      "type": "function"
    },
    {
      "inputs": [
        {
          "internalType": "address",
          "name": "userAddress",
          "type": "address"
        }
      ],
      "name": "getUserDetails",
      "outputs": [
        {
          "internalType": "uint256",
          "name": "",
          "type": "uint256"
        },
        {
          "internalType": "uint256",
          "name": "",
          "type": "uint256"
        }
      ],
      "stateMutability": "view",
      "type": "function",
      "constant": true
    }
  ],
  "bytecode": "0x608060405234801561001057600080fd5b5060405161064338038061064383398101604081905261002f91610062565b60008054336001600160a01b031991821617909155600180549091166001600160a01b0392909216919091179055610092565b60006020828403121561007457600080fd5b81516001600160a01b038116811461008b57600080fd5b9392505050565b6105a2806100a16000396000f3fe608060405234801561001057600080fd5b50600436106100625760003560e01c806342f6487a1461006757806385932345146100975780638da5cb5b146100ac578063a87430ba146100bf578063cc3d967b146100fb578063e92e92e71461012c575b600080fd5b60015461007a906001600160a01b031681565b6040516001600160a01b0390911681526020015b60405180910390f35b6100aa6100a536600461049a565b61013f565b005b60005461007a906001600160a01b031681565b6100e66100cd3660046104b3565b6002602052600090815260409020805460019091015482565b6040805192835260208301919091520161008e565b6100e66101093660046104b3565b6001600160a01b0316600090815260026020526040902080546001909101549091565b6100aa61013a36600461049a565b6101b8565b600061014c6064836104f9565b3360009081526002602052604081208054929350839290919061017090849061051b565b909155505060405181815233907f2c4c0dc427a50c4a69d2fc184c47a311acf950d8d2f289fbaee64e83e9b28967906020015b60405180910390a26101b4336102e8565b5050565b336000908152600260205260409020548111156102115760405162461bcd60e51b8152602060048201526013602482015272496e73756666696369656e7420706f696e747360681b604482015260640160405180910390fd5b60015433600090815260026020526040812080546001600160a01b039093169284929061023f908490610533565b909155505060405163a9059cbb60e01b8152336004820152602481018390526001600160a01b0382169063a9059cbb906044016020604051808303816000875af1158015610291573d6000803e3d6000fd5b505050506040513d601f19601f820116820180604052508101906102b5919061054a565b5060405182815233907fc37df5d14f305277c1289e9a188a097cda6684189c95f785feb056cb77a8c910906020016101a3565b6001600160a01b038116600090815260026020526040902054600181108015906103125750606481105b15610393576001600160a01b0382166000908152600260205260409020600190810154146101b4576001600160a01b038216600081815260026020908152604091829020600190810181905591519182527fbf6ea7c060c80f162230bb393b03b5511a98ba806495ae06ee31f1454734381f91015b60405180910390a25050565b606481101580156103a4575060c881105b1561041c576001600160a01b038216600090815260026020819052604090912060010154146101b4576001600160a01b03821660008181526002602081815260409283902060010182905591519081527fbf6ea7c060c80f162230bb393b03b5511a98ba806495ae06ee31f1454734381f9101610387565b60c881106101b4576001600160a01b0382166000908152600260205260409020600101546003146101b4576001600160a01b0382166000818152600260209081526040918290206003600190910181905591519182527fbf6ea7c060c80f162230bb393b03b5511a98ba806495ae06ee31f1454734381f9101610387565b6000602082840312156104ac57600080fd5b5035919050565b6000602082840312156104c557600080fd5b81356001600160a01b03811681146104dc57600080fd5b9392505050565b634e487b7160e01b600052601160045260246000fd5b60008261051657634e487b7160e01b600052601260045260246000fd5b500490565b6000821982111561052e5761052e6104e3565b500190565b600082821015610545576105456104e3565b500390565b60006020828403121561055c57600080fd5b815180151581146104dc57600080fdfea2646970667358221220b45809090d3c369701b51ec3b2725b5b6859c6f03cf9cd50597fadd06b74369d64736f6c634300080b0033",
  "immutableReferences": {},
  "source": "// SPDX-License-Identifier: MIT\r\npragma solidity ^0.8.0;\r\nimport \"./FastCoin.sol\";\r\n\r\ncontract LoyaltyProgram {\r\n    address public owner;\r\n    address public payment;\r\n    // User structure to store user information\r\n    struct User {\r\n        uint256 points;\r\n        uint256 tier;\r\n    }\r\n\r\n    // Mapping to store user details\r\n    mapping(address => User) public users;\r\n    // Event emitted when a user earns points\r\n    event PointsEarned(address indexed user, uint256 points);\r\n    // Event emitted when a user redeems points\r\n    event PointsRedeemed(address indexed user, uint256 points);\r\n    // Event emitted when a user advances to a new tier\r\n    event TierChanged(address indexed user, uint256 newTier);\r\n\r\n    // Constructor to set the contract owner\r\n    constructor(address _paymentcontract) {\r\n        owner = msg.sender;\r\n        payment = _paymentcontract;\r\n    }\r\n\r\n    // Modifier to restrict access to the contract owner\r\n    modifier onlyOwner() {\r\n        require(\r\n            msg.sender == owner,\r\n            \"Only the contract owner can call this function\"\r\n        );\r\n        _;\r\n    }\r\n\r\n    // Function to allow users to earn points\r\n    function earnPoints(uint256 price) external {\r\n        uint256 points = price / 100;\r\n        users[msg.sender].points += points;\r\n        emit PointsEarned(msg.sender, points);\r\n\r\n        // Check if the user should advance to a new tier\r\n        checkTier(msg.sender);\r\n    }\r\n\r\n    // Function to allow users to redeem points for rewards\r\n    function redeemPoints(uint256 points) external {\r\n        require(users[msg.sender].points >= points, \"Insufficient points\");\r\n        FastCoin paymentcontract = FastCoin(payment);\r\n        users[msg.sender].points -= points;\r\n        paymentcontract.transfer(msg.sender, points);\r\n        emit PointsRedeemed(msg.sender, points);\r\n\r\n        // Check if the user should advance to a new tier\r\n        checkTier(msg.sender);\r\n    }\r\n\r\n    // Function to check and update the user's tier based on points\r\n    function checkTier(address userAddress) internal {\r\n        uint256 currentPoints = users[userAddress].points;\r\n        if (currentPoints >= 1 && currentPoints < 100) {\r\n            // Bronze tier\r\n            if (users[userAddress].tier != 1) {\r\n                users[userAddress].tier = 1;\r\n                emit TierChanged(userAddress, 1);\r\n                \r\n            }\r\n        } else if (currentPoints >= 100 && currentPoints < 200) {\r\n            // Silver tier\r\n            if (users[userAddress].tier != 2) {\r\n                users[userAddress].tier = 2;\r\n                emit TierChanged(userAddress, 2);\r\n                \r\n            }\r\n        } else if (currentPoints >= 200) {\r\n            // Gold tier\r\n            if (users[userAddress].tier != 3) {\r\n                users[userAddress].tier = 3;\r\n                emit TierChanged(userAddress, 3);\r\n                \r\n            }\r\n        }\r\n    }\r\n\r\n    // Function to get user details\r\n    function getUserDetails(\r\n        address userAddress\r\n    ) external view returns (uint256, uint256) {\r\n        return (users[userAddress].points, users[userAddress].tier);\r\n    }\r\n}\r\n",
  "sourcePath": "C:\\Users\\Hp OMEN\\Desktop\\FAST NU\\Semester 7\\Blockchain\\Project 2\\BlockChain_Project_02\\contracts\\LoyaltyContract.sol",
  "compiler": {
    "name": "solc",
    "version": "0.8.11+commit.d7f03943.Emscripten.clang"
  },
  "schemaVersion": "3.4.16",
  "updatedAt": "2024-01-06T17:41:39.849Z",
  "networkType": "ethereum",
  "devdoc": {
    "kind": "dev",
    "methods": {},
    "version": 1
  },
  "userdoc": {
    "kind": "user",
    "methods": {},
    "version": 1
  }
}