{
  "contractName": "Menu_Management",
  "abi": [
    {
      "inputs": [],
      "stateMutability": "nonpayable",
      "type": "constructor"
    },
    {
      "inputs": [
        {
          "internalType": "string",
          "name": "",
          "type": "string"
        }
      ],
      "name": "menu",
      "outputs": [
        {
          "internalType": "string",
          "name": "name",
          "type": "string"
        },
        {
          "internalType": "uint256",
          "name": "price",
          "type": "uint256"
        },
        {
          "internalType": "uint256",
          "name": "availability",
          "type": "uint256"
        }
      ],
      "stateMutability": "view",
      "type": "function",
      "constant": true
    },
    {
      "inputs": [
        {
          "internalType": "uint256",
          "name": "",
          "type": "uint256"
        }
      ],
      "name": "menuItemArr",
      "outputs": [
        {
          "internalType": "string",
          "name": "",
          "type": "string"
        }
      ],
      "stateMutability": "view",
      "type": "function",
      "constant": true
    },
    {
      "inputs": [
        {
          "internalType": "string",
          "name": "_name",
          "type": "string"
        },
        {
          "internalType": "uint256",
          "name": "_price",
          "type": "uint256"
        },
        {
          "internalType": "uint256",
          "name": "_availability",
          "type": "uint256"
        }
      ],
      "name": "addItems",
      "outputs": [],
      "stateMutability": "nonpayable",
      "type": "function"
    },
    {
      "inputs": [
        {
          "internalType": "string",
          "name": "_name",
          "type": "string"
        },
        {
          "internalType": "uint256",
          "name": "_price",
          "type": "uint256"
        },
        {
          "internalType": "uint256",
          "name": "_availability",
          "type": "uint256"
        }
      ],
      "name": "updateItem",
      "outputs": [],
      "stateMutability": "nonpayable",
      "type": "function"
    },
    {
      "inputs": [
        {
          "internalType": "string",
          "name": "_name",
          "type": "string"
        }
      ],
      "name": "viewAvailability",
      "outputs": [
        {
          "internalType": "uint256",
          "name": "",
          "type": "uint256"
        }
      ],
      "stateMutability": "view",
      "type": "function",
      "constant": true
    },
    {
      "inputs": [],
      "name": "displayMenu",
      "outputs": [
        {
          "internalType": "string[]",
          "name": "",
          "type": "string[]"
        },
        {
          "internalType": "uint256[]",
          "name": "",
          "type": "uint256[]"
        },
        {
          "internalType": "uint256[]",
          "name": "",
          "type": "uint256[]"
        }
      ],
      "stateMutability": "view",
      "type": "function",
      "constant": true
    }
  ],
  "bytecode": "0x608060405234801561001057600080fd5b50600080546001600160a01b03191633179055610c26806100326000396000f3fe608060405234801561001057600080fd5b50600436106100625760003560e01c80631f6b79171461006757806331332cbe146100875780634e3d9d831461009c5780638069adad146100be5780638585ccc6146100df578063e6e6ae6f146100ff575b600080fd5b61006f610112565b60405161007e93929190610949565b60405180910390f35b61009a610095366004610a77565b61040e565b005b6100af6100aa366004610ac5565b610584565b60405161007e93929190610b02565b6100d16100cc366004610ac5565b610639565b60405190815260200161007e565b6100f26100ed366004610b27565b610664565b60405161007e9190610b40565b61009a61010d366004610a77565b610710565b6002546060908190819060008167ffffffffffffffff811115610137576101376109d4565b60405190808252806020026020018201604052801561016a57816020015b60608152602001906001900390816101555790505b50905060008267ffffffffffffffff811115610188576101886109d4565b6040519080825280602002602001820160405280156101b1578160200160208202803683370190505b50905060008367ffffffffffffffff8111156101cf576101cf6109d4565b6040519080825280602002602001820160405280156101f8578160200160208202803683370190505b50905060005b848110156104005760006002828154811061021b5761021b610b5a565b90600052602060002001805461023090610b70565b80601f016020809104026020016040519081016040528092919081815260200182805461025c90610b70565b80156102a95780601f1061027e576101008083540402835291602001916102a9565b820191906000526020600020905b81548152906001019060200180831161028c57829003601f168201915b5050505050905060006001826040516102c29190610bab565b90815260200160405180910390206040518060600160405290816000820180546102eb90610b70565b80601f016020809104026020016040519081016040528092919081815260200182805461031790610b70565b80156103645780601f1061033957610100808354040283529160200191610364565b820191906000526020600020905b81548152906001019060200180831161034757829003601f168201915b50505050508152602001600182015481526020016002820154815250509050806000015186848151811061039a5761039a610b5a565b602002602001018190525080602001518584815181106103bc576103bc610b5a565b60200260200101818152505080604001518484815181106103df576103df610b5a565b602002602001018181525050505080806103f890610bc7565b9150506101fe565b509196909550909350915050565b6000546001600160a01b031633146104695760405162461bcd60e51b81526020600482015260196024820152780b2deea40c2e4ca40dcdee84086c2ccca409eeedccae440745603b1b60448201526064015b60405180910390fd5b6001836040516104799190610bab565b9081526020016040518091039020600101546000146104cf5760405162461bcd60e51b8152602060048201526012602482015271125d195b48185b1c9958591e48195e1a5cdd60721b6044820152606401610460565b6040518060600160405280848152602001838152602001828152506001846040516104fa9190610bab565b9081526020016040518091039020600082015181600001908051906020019061052492919061081d565b5060208281015160018084019190915560409093015160029283015581549283018255600091909152845161057e927f405787fa12a823e0f2b7631cc41b3ba8828b3321ca811111fa75cd3aa3bb5ace019186019061081d565b50505050565b80516020818301810180516001825292820191909301209152805481906105aa90610b70565b80601f01602080910402602001604051908101604052809291908181526020018280546105d690610b70565b80156106235780601f106105f857610100808354040283529160200191610623565b820191906000526020600020905b81548152906001019060200180831161060657829003601f168201915b5050505050908060010154908060020154905083565b600060018260405161064b9190610bab565b9081526020016040518091039020600201549050919050565b6002818154811061067457600080fd5b90600052602060002001600091509050805461068f90610b70565b80601f01602080910402602001604051908101604052809291908181526020018280546106bb90610b70565b80156107085780601f106106dd57610100808354040283529160200191610708565b820191906000526020600020905b8154815290600101906020018083116106eb57829003601f168201915b505050505081565b6000546001600160a01b031633146107665760405162461bcd60e51b81526020600482015260196024820152780b2deea40c2e4ca40dcdee84086c2ccca409eeedccae440745603b1b6044820152606401610460565b6001836040516107769190610bab565b908152602001604051809103902060010154600014156107ce5760405162461bcd60e51b8152602060048201526013602482015272125d195b48191bd95cc81b9bdd08195e1a5cdd606a1b6044820152606401610460565b816001846040516107df9190610bab565b908152602001604051809103902060010181905550806001846040516108059190610bab565b90815260405190819003602001902060020155505050565b82805461082990610b70565b90600052602060002090601f01602090048101928261084b5760008555610891565b82601f1061086457805160ff1916838001178555610891565b82800160010185558215610891579182015b82811115610891578251825591602001919060010190610876565b5061089d9291506108a1565b5090565b5b8082111561089d57600081556001016108a2565b60005b838110156108d15781810151838201526020016108b9565b8381111561057e5750506000910152565b600081518084526108fa8160208601602086016108b6565b601f01601f19169290920160200192915050565b600081518084526020808501945080840160005b8381101561093e57815187529582019590820190600101610922565b509495945050505050565b6000606082016060835280865180835260808501915060808160051b8601019250602080890160005b838110156109a057607f1988870301855261098e8683516108e2565b95509382019390820190600101610972565b5050858403818701525050506109b6818661090e565b905082810360408401526109ca818561090e565b9695505050505050565b634e487b7160e01b600052604160045260246000fd5b600082601f8301126109fb57600080fd5b813567ffffffffffffffff80821115610a1657610a166109d4565b604051601f8301601f19908116603f01168101908282118183101715610a3e57610a3e6109d4565b81604052838152866020858801011115610a5757600080fd5b836020870160208301376000602085830101528094505050505092915050565b600080600060608486031215610a8c57600080fd5b833567ffffffffffffffff811115610aa357600080fd5b610aaf868287016109ea565b9660208601359650604090950135949350505050565b600060208284031215610ad757600080fd5b813567ffffffffffffffff811115610aee57600080fd5b610afa848285016109ea565b949350505050565b606081526000610b1560608301866108e2565b60208301949094525060400152919050565b600060208284031215610b3957600080fd5b5035919050565b602081526000610b5360208301846108e2565b9392505050565b634e487b7160e01b600052603260045260246000fd5b600181811c90821680610b8457607f821691505b60208210811415610ba557634e487b7160e01b600052602260045260246000fd5b50919050565b60008251610bbd8184602087016108b6565b9190910192915050565b6000600019821415610be957634e487b7160e01b600052601160045260246000fd5b506001019056fea2646970667358221220d219389ec4e146f9886230dc8520dc26301893c344e7bb2be493378f8e0a705b64736f6c634300080b0033",
  "immutableReferences": {},
  "source": "// SPDX-License-Identifier: MIT\r\npragma solidity ^0.8.0;\r\n\r\ncontract Menu_Management {\r\n    address owner;\r\n    mapping (string => MenuItems) public menu;\r\n    struct MenuItems {\r\n        string name;\r\n        uint256 price;\r\n        uint256 availability;\r\n    }\r\n    string[] public menuItemArr;\r\n    constructor() {\r\n        owner = msg.sender;\r\n    }\r\n\r\n    modifier CafeOwner() {\r\n        require(msg.sender==owner, \"You are not Cafe Owner :(\");\r\n        _;\r\n    }\r\n\r\n    function addItems(string memory _name, uint256 _price, uint256 _availability) external CafeOwner {\r\n        require(menu[_name].price==0, \"Item already exist\");\r\n        menu[_name] = MenuItems(_name,_price,_availability);\r\n        menuItemArr.push(_name);\r\n    }\r\n\r\n    function updateItem(string memory _name, uint256 _price, uint256 _availability) external CafeOwner {\r\n        require(menu[_name].price != 0, \"Item does not exist\");\r\n        menu[_name].price = _price;\r\n        menu[_name].availability = _availability;\r\n    }\r\n\r\n    function viewAvailability(string memory _name) external view returns(uint256){\r\n        return menu[_name].availability;\r\n    } \r\n\r\n    function displayMenu() external view returns (string[] memory,uint256[] memory,uint256[] memory) {\r\n        uint256 menu_length = menuItemArr.length;\r\n        string[] memory name = new string[](menu_length);\r\n        uint256[] memory price = new uint256[](menu_length);\r\n        uint256[] memory availabilitiy = new uint256[](menu_length);\r\n\r\n        for (uint256 i = 0; i < menu_length; i++) {\r\n            string memory itemName = menuItemArr[i];\r\n            MenuItems memory item = menu[itemName];\r\n            name[i] = item.name;\r\n            price[i] = item.price;\r\n            availabilitiy[i] = item.availability;\r\n        }\r\n\r\n        return (name, price, availabilitiy);\r\n\r\n    }\r\n}",
  "sourcePath": "C:\\Users\\Hp OMEN\\Desktop\\FAST NU\\Semester 7\\Blockchain\\Project 2\\BlockChain_Project_02\\contracts\\MenuManagement.sol",
  "compiler": {
    "name": "solc",
    "version": "0.8.11+commit.d7f03943.Emscripten.clang"
  },
  "schemaVersion": "3.4.16",
  "updatedAt": "2024-01-06T10:38:56.494Z",
  "networkType": "ethereum",
  "devdoc": {
    "kind": "dev",
    "methods": {},
    "version": 1
  },
  "userdoc": {
    "kind": "user",
    "methods": {},
    "version": 1
  }
}