{
  "contractName": "OrderProcessing",
  "abi": [
    {
      "inputs": [
        {
          "internalType": "address",
          "name": "_menumanagement",
          "type": "address"
        },
        {
          "internalType": "address",
          "name": "_loyaltycontract",
          "type": "address"
        },
        {
          "internalType": "address",
          "name": "_Promotionsanddiscount",
          "type": "address"
        },
        {
          "internalType": "address",
          "name": "_payment",
          "type": "address"
        }
      ],
      "stateMutability": "nonpayable",
      "type": "constructor"
    },
    {
      "inputs": [],
      "name": "loyalty",
      "outputs": [
        {
          "internalType": "address",
          "name": "",
          "type": "address"
        }
      ],
      "stateMutability": "view",
      "type": "function",
      "constant": true
    },
    {
      "inputs": [],
      "name": "menuAddress",
      "outputs": [
        {
          "internalType": "address",
          "name": "",
          "type": "address"
        }
      ],
      "stateMutability": "view",
      "type": "function",
      "constant": true
    },
    {
      "inputs": [],
      "name": "payment",
      "outputs": [
        {
          "internalType": "address",
          "name": "",
          "type": "address"
        }
      ],
      "stateMutability": "view",
      "type": "function",
      "constant": true
    },
    {
      "inputs": [],
      "name": "promotionsanddiscount",
      "outputs": [
        {
          "internalType": "address",
          "name": "",
          "type": "address"
        }
      ],
      "stateMutability": "view",
      "type": "function",
      "constant": true
    },
    {
      "inputs": [
        {
          "internalType": "string",
          "name": "itemname",
          "type": "string"
        },
        {
          "internalType": "uint256",
          "name": "quantity",
          "type": "uint256"
        }
      ],
      "name": "placeOrder",
      "outputs": [
        {
          "internalType": "string",
          "name": "",
          "type": "string"
        }
      ],
      "stateMutability": "nonpayable",
      "type": "function"
    }
  ],
  "bytecode": "0x608060405234801561001057600080fd5b5060405161082b38038061082b83398101604081905261002f916100a8565b60008054336001600160a01b0319918216179091556001805482166001600160a01b0396871617905560028054821694861694909417909355600380548416928516929092179091556004805490921692169190911790556100fc565b80516001600160a01b03811681146100a357600080fd5b919050565b600080600080608085870312156100be57600080fd5b6100c78561008c565b93506100d56020860161008c565b92506100e36040860161008c565b91506100f16060860161008c565b905092959194509250565b6107208061010b6000396000f3fe608060405234801561001057600080fd5b50600436106100575760003560e01c806342f6487a1461005c5780638d16a6941461008c578063a1b6e8361461009f578063ece8bd8e146100bf578063fa7d76e1146100d2575b600080fd5b60045461006f906001600160a01b031681565b6040516001600160a01b0390911681526020015b60405180910390f35b60025461006f906001600160a01b031681565b6100b26100ad3660046104d0565b6100e5565b6040516100839190610582565b60035461006f906001600160a01b031681565b60015461006f906001600160a01b031681565b60015460048054604051634e3d9d8360e01b81526060936001600160a01b0390811693921691600091829182918691634e3d9d8391610126918c9101610582565b600060405180830381865afa158015610143573d6000803e3d6000fd5b505050506040513d6000823e601f3d908101601f1916820160405261016b91908101906105b5565b925092509250600081116101b057604051806040016040528060128152602001714974656d206f7574206f662073746f636b2160701b8152509550505050505061045b565b6040516370a0823160e01b815233600482015282906001600160a01b038616906370a0823190602401602060405180830381865afa1580156101f6573d6000803e3d6000fd5b505050506040513d601f19601f8201168201806040525081019061021a919061063f565b101561025b57604051806040016040528060168152602001754e6f7420656e6f756768204661737420436f696e732160501b8152509550505050505061045b565b33600090815260056020526040908190209051610279908590610658565b908152602001604051809103902054600014156102c657336000908152600560205260409081902090518891906102b1908690610658565b9081526040519081900360200190205561030a565b336000908152600560205260409081902090518891906102e7908690610658565b90815260200160405180910390206000828254610304919061068a565b90915550505b600061031683896106a2565b60005460405163a9059cbb60e01b81526001600160a01b0391821660048201526024810183905291925086169063a9059cbb906044016020604051808303816000875af115801561036b573d6000803e3d6000fd5b505050506040513d601f19601f8201168201806040525081019061038f91906106c1565b6103d15760405162461bcd60e51b815260206004820152600f60248201526e151c985b9cd9995c8811985a5b1959608a1b604482015260640160405180910390fd5b600254604051638593234560e01b8152600481018390526001600160a01b03909116908190638593234590602401600060405180830381600087803b15801561041957600080fd5b505af115801561042d573d6000803e3d6000fd5b50505050604051806040016040528060078152602001665375636365737360c81b8152509750505050505050505b92915050565b634e487b7160e01b600052604160045260246000fd5b604051601f8201601f1916810167ffffffffffffffff811182821017156104a0576104a0610461565b604052919050565b600067ffffffffffffffff8211156104c2576104c2610461565b50601f01601f191660200190565b600080604083850312156104e357600080fd5b823567ffffffffffffffff8111156104fa57600080fd5b8301601f8101851361050b57600080fd5b803561051e610519826104a8565b610477565b81815286602083850101111561053357600080fd5b8160208401602083013760006020928201830152969401359450505050565b60005b8381101561056d578181015183820152602001610555565b8381111561057c576000848401525b50505050565b60208152600082518060208401526105a1816040850160208701610552565b601f01601f19169190910160400192915050565b6000806000606084860312156105ca57600080fd5b835167ffffffffffffffff8111156105e157600080fd5b8401601f810186136105f257600080fd5b8051610600610519826104a8565b81815287602083850101111561061557600080fd5b610626826020830160208601610552565b6020870151604090970151909896975095945050505050565b60006020828403121561065157600080fd5b5051919050565b6000825161066a818460208701610552565b9190910192915050565b634e487b7160e01b600052601160045260246000fd5b6000821982111561069d5761069d610674565b500190565b60008160001904831182151516156106bc576106bc610674565b500290565b6000602082840312156106d357600080fd5b815180151581146106e357600080fd5b939250505056fea26469706673582212209fc7e7ce14a697997d0b959d32a23f0839fac1b33e1d684034fb1438c601372264736f6c634300080b0033",
  "immutableReferences": {},
  "source": "//SPDX-License-Identifier: MIT\r\npragma solidity ^0.8.0;\r\nimport \"./LoyaltyContract.sol\";\r\nimport \"./MenuManagement.sol\";\r\nimport \"./promotions.sol\";\r\nimport \"./FastCoin.sol\";\r\n\r\ncontract OrderProcessing{\r\n    address owner;\r\n    address public menuAddress;\r\n    address public loyalty;\r\n    address public promotionsanddiscount;\r\n    address public payment;\r\n\r\n    mapping(address=> mapping(string=>uint)) customerOrders;\r\n\r\n    constructor(address _menumanagement,address _loyaltycontract,address _Promotionsanddiscount, address _payment){\r\n            owner = msg.sender;\r\n            menuAddress = _menumanagement;\r\n            loyalty = _loyaltycontract;\r\n            promotionsanddiscount = _Promotionsanddiscount;\r\n            payment = _payment;\r\n    }\r\n\r\n    function placeOrder(string memory itemname, uint256 quantity) external returns (string memory) {\r\n      Menu_Management obj = Menu_Management(menuAddress);\r\n      FastCoin paymentObj = FastCoin(payment);\r\n      (string memory item_Name, uint256 item_Price, uint256 item_Availability) = obj.menu(itemname);\r\n      if (item_Availability <= 0){\r\n        return (\"Item out of stock!\");\r\n      }\r\n      else if (paymentObj.balanceOf(msg.sender) < item_Price){\r\n        return (\"Not enough Fast Coins!\");\r\n      }\r\n      \r\n      if (customerOrders[msg.sender][item_Name] == 0){\r\n        customerOrders[msg.sender][item_Name] = quantity;\r\n      }\r\n      else{\r\n        customerOrders[msg.sender][item_Name] += quantity;\r\n      }\r\n\r\n      uint256 cost = quantity * item_Price;\r\n      require(paymentObj.transfer(owner, cost), \"Transfer Failed\");\r\n\r\n      LoyaltyProgram loyaltyProgram = LoyaltyProgram(loyalty);\r\n      loyaltyProgram.earnPoints(cost);\r\n      \r\n      return (\"Success\");\r\n    }\r\n}",
  "sourcePath": "C:\\Users\\Hp OMEN\\Desktop\\FAST NU\\Semester 7\\Blockchain\\Project 2\\BlockChain_Project_02\\contracts\\orderprocessing.sol",
  "compiler": {
    "name": "solc",
    "version": "0.8.11+commit.d7f03943.Emscripten.clang"
  },
  "schemaVersion": "3.4.16",
  "updatedAt": "2024-01-06T10:38:56.537Z",
  "networkType": "ethereum",
  "devdoc": {
    "kind": "dev",
    "methods": {},
    "version": 1
  },
  "userdoc": {
    "kind": "user",
    "methods": {},
    "version": 1
  }
}