{
  "contractName": "OrderProcessing",
  "abi": [
    {
      "inputs": [
        {
          "internalType": "address",
          "name": "_menumanagement",
          "type": "address"
        },
        {
          "internalType": "address",
          "name": "_loyaltycontract",
          "type": "address"
        },
        {
          "internalType": "address",
          "name": "_Promotionsanddiscount",
          "type": "address"
        },
        {
          "internalType": "address",
          "name": "_payment",
          "type": "address"
        }
      ],
      "stateMutability": "nonpayable",
      "type": "constructor"
    },
    {
      "inputs": [],
      "name": "loyalty",
      "outputs": [
        {
          "internalType": "address",
          "name": "",
          "type": "address"
        }
      ],
      "stateMutability": "view",
      "type": "function",
      "constant": true
    },
    {
      "inputs": [],
      "name": "menuAddress",
      "outputs": [
        {
          "internalType": "address",
          "name": "",
          "type": "address"
        }
      ],
      "stateMutability": "view",
      "type": "function",
      "constant": true
    },
    {
      "inputs": [],
      "name": "payment",
      "outputs": [
        {
          "internalType": "address",
          "name": "",
          "type": "address"
        }
      ],
      "stateMutability": "view",
      "type": "function",
      "constant": true
    },
    {
      "inputs": [],
      "name": "promotionsanddiscount",
      "outputs": [
        {
          "internalType": "address",
          "name": "",
          "type": "address"
        }
      ],
      "stateMutability": "view",
      "type": "function",
      "constant": true
    },
    {
      "inputs": [
        {
          "internalType": "string",
          "name": "item_Name",
          "type": "string"
        },
        {
          "internalType": "uint256",
          "name": "quantity",
          "type": "uint256"
        }
      ],
      "name": "calculateOrderCost",
      "outputs": [
        {
          "internalType": "uint256",
          "name": "",
          "type": "uint256"
        }
      ],
      "stateMutability": "view",
      "type": "function",
      "constant": true
    },
    {
      "inputs": [
        {
          "internalType": "string",
          "name": "itemname",
          "type": "string"
        },
        {
          "internalType": "uint256",
          "name": "quantity",
          "type": "uint256"
        }
      ],
      "name": "placeOrder",
      "outputs": [
        {
          "internalType": "string",
          "name": "",
          "type": "string"
        }
      ],
      "stateMutability": "nonpayable",
      "type": "function"
    }
  ],
  "bytecode": "0x608060405234801561001057600080fd5b506040516108d93803806108d983398101604081905261002f916100a8565b60008054336001600160a01b0319918216179091556001805482166001600160a01b0396871617905560028054821694861694909417909355600380548416928516929092179091556004805490921692169190911790556100fc565b80516001600160a01b03811681146100a357600080fd5b919050565b600080600080608085870312156100be57600080fd5b6100c78561008c565b93506100d56020860161008c565b92506100e36040860161008c565b91506100f16060860161008c565b905092959194509250565b6107ce8061010b6000396000f3fe608060405234801561001057600080fd5b50600436106100625760003560e01c806342f6487a1461006757806367cfa601146100975780638d16a694146100b8578063a1b6e836146100cb578063ece8bd8e146100eb578063fa7d76e1146100fe575b600080fd5b60045461007a906001600160a01b031681565b6040516001600160a01b0390911681526020015b60405180910390f35b6100aa6100a536600461053d565b610111565b60405190815260200161008e565b60025461007a906001600160a01b031681565b6100de6100d936600461053d565b61036f565b60405161008e91906105ef565b60035461007a906001600160a01b031681565b60015461007a906001600160a01b031681565b600154604051634e3d9d8360e01b81526000916001600160a01b0316908290819081908490634e3d9d839061014a908a906004016105ef565b600060405180830381865afa158015610167573d6000803e3d6000fd5b505050506040513d6000823e601f3d908101601f1916820160405261018f9190810190610622565b925092509250600081116101df5760405162461bcd60e51b81526020600482015260126024820152714974656d206f7574206f662073746f636b2160701b60448201526064015b60405180910390fd5b60006101eb83886106c2565b60025460405163543a185d60e11b81523360048201529192506001600160a01b0316906000908190839063a87430ba906024016040805180830381865afa15801561023a573d6000803e3d6000fd5b505050506040513d601f19601f8201168201806040525081019061025e91906106e1565b600354604051633851751b60e21b81529294509092506001600160a01b031690600090829063e145d46c90610297908c906004016105ef565b602060405180830381865afa1580156102b4573d6000803e3d6000fd5b505050506040513d601f19601f820116820180604052508101906102d89190610705565b9050801561035c5782600114156102fb576102f4600a8261071e565b9050610326565b826002141561030f576102f460148261071e565b826003141561032657610323601e8261071e565b90505b6000606461033483896106c2565b61033e9190610736565b905061034a8188610758565b9b505050505050505050505050610369565b5093985050505050505050505b92915050565b6004546060906001600160a01b0316600061038a8585610111565b600254604051638593234560e01b8152600481018390529192506001600160a01b0316908190638593234590602401600060405180830381600087803b1580156103d357600080fd5b505af11580156103e7573d6000803e3d6000fd5b50506000546040516323b872dd60e01b81523360048201526001600160a01b0391821660248201526044810186905290861692506323b872dd91506064016020604051808303816000875af1158015610444573d6000803e3d6000fd5b505050506040513d601f19601f82011682018060405250810190610468919061076f565b6104a65760405162461bcd60e51b815260206004820152600f60248201526e151c985b9cd9995c8811985a5b1959608a1b60448201526064016101d6565b50506040805180820190915260078152665375636365737360c81b6020820152949350505050565b634e487b7160e01b600052604160045260246000fd5b604051601f8201601f1916810167ffffffffffffffff8111828210171561050d5761050d6104ce565b604052919050565b600067ffffffffffffffff82111561052f5761052f6104ce565b50601f01601f191660200190565b6000806040838503121561055057600080fd5b823567ffffffffffffffff81111561056757600080fd5b8301601f8101851361057857600080fd5b803561058b61058682610515565b6104e4565b8181528660208385010111156105a057600080fd5b8160208401602083013760006020928201830152969401359450505050565b60005b838110156105da5781810151838201526020016105c2565b838111156105e9576000848401525b50505050565b602081526000825180602084015261060e8160408501602087016105bf565b601f01601f19169190910160400192915050565b60008060006060848603121561063757600080fd5b835167ffffffffffffffff81111561064e57600080fd5b8401601f8101861361065f57600080fd5b805161066d61058682610515565b81815287602083850101111561068257600080fd5b6106938260208301602086016105bf565b6020870151604090970151909896975095945050505050565b634e487b7160e01b600052601160045260246000fd5b60008160001904831182151516156106dc576106dc6106ac565b500290565b600080604083850312156106f457600080fd5b505080516020909101519092909150565b60006020828403121561071757600080fd5b5051919050565b60008219821115610731576107316106ac565b500190565b60008261075357634e487b7160e01b600052601260045260246000fd5b500490565b60008282101561076a5761076a6106ac565b500390565b60006020828403121561078157600080fd5b8151801515811461079157600080fd5b939250505056fea2646970667358221220c406d5077de10d4fdda1d9a7bd48aea623ace54c94511670f6c9bfc7db6763a864736f6c634300080b0033",
  "immutableReferences": {},
  "source": "//SPDX-License-Identifier: MIT\r\npragma solidity ^0.8.0;\r\nimport \"./LoyaltyContract.sol\";\r\nimport \"./MenuManagement.sol\";\r\nimport \"./promotions.sol\";\r\nimport \"./FastCoin.sol\";\r\n\r\ncontract OrderProcessing{\r\n    address owner;\r\n    address public menuAddress;\r\n    address public loyalty;\r\n    address public promotionsanddiscount;\r\n    address public payment;\r\n\r\n    mapping(address=> mapping(string=>uint)) customerOrders;\r\n\r\n    constructor(address _menumanagement,address _loyaltycontract,address _Promotionsanddiscount, address _payment){\r\n            owner = msg.sender;\r\n            menuAddress = _menumanagement;\r\n            loyalty = _loyaltycontract;\r\n            promotionsanddiscount = _Promotionsanddiscount;\r\n            payment = _payment;\r\n    }\r\n\r\n    function calculateOrderCost(string memory item_Name, uint256 quantity) public view returns (uint256) {\r\n    Menu_Management obj = Menu_Management(menuAddress);\r\n\r\n    (string memory itemName, uint256 item_Price, uint256 item_Availability) = obj.menu(item_Name);\r\n\r\n    if (item_Availability <= 0) {\r\n        revert(\"Item out of stock!\");\r\n    }\r\n\r\n    uint256 baseCost = quantity * item_Price;\r\n\r\n    LoyaltyProgram loyaltyProgram = LoyaltyProgram(loyalty);\r\n\r\n    (uint256 userPoints, uint256 userTier) = loyaltyProgram.users(msg.sender);\r\n\r\n    PromotionsSystem promotionsSystem = PromotionsSystem(promotionsanddiscount);\r\n    uint256 discountPercentage = promotionsSystem.getDiscountPercentage(itemName);\r\n\r\n    if (discountPercentage > 0) {\r\n        if (userTier == 1) {\r\n            discountPercentage += 10;\r\n        } else if (userTier == 2) {\r\n            discountPercentage += 20;\r\n        } else if (userTier == 3) {\r\n            discountPercentage += 30;\r\n        }\r\n\r\n        uint256 discount = (baseCost * discountPercentage) / 100;\r\n        return baseCost - discount;\r\n    }\r\n\r\n    return baseCost;\r\n}\r\n\r\nfunction placeOrder(string memory itemname, uint256 quantity) external returns (string memory) {\r\n    FastCoin paymentObj = FastCoin(payment);\r\n\r\n    uint256 totalCost = calculateOrderCost(itemname, quantity);\r\n    LoyaltyProgram loyaltyProgram = LoyaltyProgram(loyalty);\r\n    loyaltyProgram.earnPoints(totalCost);\r\n    require(paymentObj.transferFrom(msg.sender, owner, totalCost), \"Transfer Failed\");\r\n\r\n    return (\"Success\");\r\n}\r\n}",
  "sourcePath": "C:\\Users\\Hp OMEN\\Desktop\\FAST NU\\Semester 7\\Blockchain\\Project 2\\BlockChain_Project_02\\contracts\\orderprocessing.sol",
  "compiler": {
    "name": "solc",
    "version": "0.8.11+commit.d7f03943.Emscripten.clang"
  },
  "schemaVersion": "3.4.16",
  "updatedAt": "2024-01-10T07:50:53.610Z",
  "networkType": "ethereum",
  "devdoc": {
    "kind": "dev",
    "methods": {},
    "version": 1
  },
  "userdoc": {
    "kind": "user",
    "methods": {},
    "version": 1
  }
}