{
  "contractName": "FastCoin",
  "abi": [
    {
      "inputs": [],
      "stateMutability": "nonpayable",
      "type": "constructor"
    },
    {
      "anonymous": false,
      "inputs": [
        {
          "indexed": true,
          "internalType": "address",
          "name": "owner",
          "type": "address"
        },
        {
          "indexed": true,
          "internalType": "address",
          "name": "sender",
          "type": "address"
        },
        {
          "indexed": false,
          "internalType": "uint256",
          "name": "amount",
          "type": "uint256"
        }
      ],
      "name": "Approval",
      "type": "event"
    },
    {
      "anonymous": false,
      "inputs": [
        {
          "indexed": true,
          "internalType": "address",
          "name": "from",
          "type": "address"
        },
        {
          "indexed": true,
          "internalType": "address",
          "name": "to",
          "type": "address"
        },
        {
          "indexed": false,
          "internalType": "uint256",
          "name": "",
          "type": "uint256"
        }
      ],
      "name": "Transfer",
      "type": "event"
    },
    {
      "inputs": [],
      "name": "totalSupply",
      "outputs": [
        {
          "internalType": "uint256",
          "name": "",
          "type": "uint256"
        }
      ],
      "stateMutability": "view",
      "type": "function"
    },
    {
      "inputs": [
        {
          "internalType": "address",
          "name": "account",
          "type": "address"
        }
      ],
      "name": "balanceOf",
      "outputs": [
        {
          "internalType": "uint256",
          "name": "",
          "type": "uint256"
        }
      ],
      "stateMutability": "view",
      "type": "function"
    },
    {
      "inputs": [
        {
          "internalType": "address",
          "name": "recepient",
          "type": "address"
        },
        {
          "internalType": "uint256",
          "name": "amount",
          "type": "uint256"
        }
      ],
      "name": "transfer",
      "outputs": [
        {
          "internalType": "bool",
          "name": "",
          "type": "bool"
        }
      ],
      "stateMutability": "nonpayable",
      "type": "function"
    },
    {
      "inputs": [
        {
          "internalType": "address",
          "name": "spender",
          "type": "address"
        },
        {
          "internalType": "uint256",
          "name": "amount",
          "type": "uint256"
        }
      ],
      "name": "approval",
      "outputs": [
        {
          "internalType": "bool",
          "name": "",
          "type": "bool"
        }
      ],
      "stateMutability": "nonpayable",
      "type": "function"
    },
    {
      "inputs": [
        {
          "internalType": "address",
          "name": "owner",
          "type": "address"
        },
        {
          "internalType": "address",
          "name": "spender",
          "type": "address"
        }
      ],
      "name": "allowance",
      "outputs": [
        {
          "internalType": "uint256",
          "name": "",
          "type": "uint256"
        }
      ],
      "stateMutability": "view",
      "type": "function"
    },
    {
      "inputs": [
        {
          "internalType": "address",
          "name": "sender",
          "type": "address"
        },
        {
          "internalType": "address",
          "name": "recepient",
          "type": "address"
        },
        {
          "internalType": "uint256",
          "name": "amount",
          "type": "uint256"
        }
      ],
      "name": "transferFrom",
      "outputs": [
        {
          "internalType": "bool",
          "name": "",
          "type": "bool"
        }
      ],
      "stateMutability": "nonpayable",
      "type": "function"
    }
  ],
  "bytecode": "0x608060405268056bc75e2d6310000060005534801561001d57600080fd5b50600054600160003373ffffffffffffffffffffffffffffffffffffffff1673ffffffffffffffffffffffffffffffffffffffff168152602001908152602001600020600082825461006f91906100b4565b925050819055506100e8565b6000819050919050565b7f4e487b7100000000000000000000000000000000000000000000000000000000600052601160045260246000fd5b60006100bf8261007b565b91506100ca8361007b565b92508282019050808211156100e2576100e1610085565b5b92915050565b610c6e806100f76000396000f3fe608060405234801561001057600080fd5b50600436106100625760003560e01c806318160ddd1461006757806323b872dd1461008557806370a08231146100b557806375247a58146100e5578063a9059cbb14610115578063dd62ed3e14610145575b600080fd5b61006f610175565b60405161007c919061086c565b60405180910390f35b61009f600480360381019061009a9190610916565b61017e565b6040516100ac9190610984565b60405180910390f35b6100cf60048036038101906100ca919061099f565b610470565b6040516100dc919061086c565b60405180910390f35b6100ff60048036038101906100fa91906109cc565b6104b9565b60405161010c9190610984565b60405180910390f35b61012f600480360381019061012a91906109cc565b61062d565b60405161013c9190610984565b60405180910390f35b61015f600480360381019061015a9190610a0c565b6107cc565b60405161016c919061086c565b60405180910390f35b60008054905090565b6000600160008573ffffffffffffffffffffffffffffffffffffffff1673ffffffffffffffffffffffffffffffffffffffff16815260200190815260200160002054821115610202576040517f08c379a00000000000000000000000000000000000000000000000000000000081526004016101f990610aa9565b60405180910390fd5b600260008573ffffffffffffffffffffffffffffffffffffffff1673ffffffffffffffffffffffffffffffffffffffff16815260200190815260200160002060008473ffffffffffffffffffffffffffffffffffffffff1673ffffffffffffffffffffffffffffffffffffffff168152602001908152602001600020548211156102c1576040517f08c379a00000000000000000000000000000000000000000000000000000000081526004016102b890610aa9565b60405180910390fd5b81600160008673ffffffffffffffffffffffffffffffffffffffff1673ffffffffffffffffffffffffffffffffffffffff16815260200190815260200160002060008282546103109190610af8565b9250508190555081600160008573ffffffffffffffffffffffffffffffffffffffff1673ffffffffffffffffffffffffffffffffffffffff16815260200190815260200160002060008282546103669190610b2c565b9250508190555081600260008673ffffffffffffffffffffffffffffffffffffffff1673ffffffffffffffffffffffffffffffffffffffff16815260200190815260200160002060008573ffffffffffffffffffffffffffffffffffffffff1673ffffffffffffffffffffffffffffffffffffffff16815260200190815260200160002060008282546103f99190610af8565b925050819055508273ffffffffffffffffffffffffffffffffffffffff168473ffffffffffffffffffffffffffffffffffffffff167fddf252ad1be2c89b69c2b068fc378daa952ba7f163c4a11628f55a4df523b3ef8460405161045d919061086c565b60405180910390a3600190509392505050565b6000600160008373ffffffffffffffffffffffffffffffffffffffff1673ffffffffffffffffffffffffffffffffffffffff168152602001908152602001600020549050919050565b600081600160003373ffffffffffffffffffffffffffffffffffffffff1673ffffffffffffffffffffffffffffffffffffffff16815260200190815260200160002054101561053d576040517f08c379a000000000000000000000000000000000000000000000000000000000815260040161053490610bac565b60405180910390fd5b81600260003373ffffffffffffffffffffffffffffffffffffffff1673ffffffffffffffffffffffffffffffffffffffff16815260200190815260200160002060008573ffffffffffffffffffffffffffffffffffffffff1673ffffffffffffffffffffffffffffffffffffffff168152602001908152602001600020819055508273ffffffffffffffffffffffffffffffffffffffff163373ffffffffffffffffffffffffffffffffffffffff167f8c5be1e5ebec7d5bd14f71427d1e84f3dd0314c0f7b2291e5b200ac8c7c3b9258460405161061b919061086c565b60405180910390a36001905092915050565b600081600160003373ffffffffffffffffffffffffffffffffffffffff1673ffffffffffffffffffffffffffffffffffffffff1681526020019081526020016000205410156106b1576040517f08c379a00000000000000000000000000000000000000000000000000000000081526004016106a890610c18565b60405180910390fd5b81600160003373ffffffffffffffffffffffffffffffffffffffff1673ffffffffffffffffffffffffffffffffffffffff16815260200190815260200160002060008282546107009190610af8565b9250508190555081600160008573ffffffffffffffffffffffffffffffffffffffff1673ffffffffffffffffffffffffffffffffffffffff16815260200190815260200160002060008282546107569190610b2c565b925050819055508273ffffffffffffffffffffffffffffffffffffffff163373ffffffffffffffffffffffffffffffffffffffff167fddf252ad1be2c89b69c2b068fc378daa952ba7f163c4a11628f55a4df523b3ef846040516107ba919061086c565b60405180910390a36001905092915050565b6000600260008473ffffffffffffffffffffffffffffffffffffffff1673ffffffffffffffffffffffffffffffffffffffff16815260200190815260200160002060008373ffffffffffffffffffffffffffffffffffffffff1673ffffffffffffffffffffffffffffffffffffffff16815260200190815260200160002054905092915050565b6000819050919050565b61086681610853565b82525050565b6000602082019050610881600083018461085d565b92915050565b600080fd5b600073ffffffffffffffffffffffffffffffffffffffff82169050919050565b60006108b78261088c565b9050919050565b6108c7816108ac565b81146108d257600080fd5b50565b6000813590506108e4816108be565b92915050565b6108f381610853565b81146108fe57600080fd5b50565b600081359050610910816108ea565b92915050565b60008060006060848603121561092f5761092e610887565b5b600061093d868287016108d5565b935050602061094e868287016108d5565b925050604061095f86828701610901565b9150509250925092565b60008115159050919050565b61097e81610969565b82525050565b60006020820190506109996000830184610975565b92915050565b6000602082840312156109b5576109b4610887565b5b60006109c3848285016108d5565b91505092915050565b600080604083850312156109e3576109e2610887565b5b60006109f1858286016108d5565b9250506020610a0285828601610901565b9150509250929050565b60008060408385031215610a2357610a22610887565b5b6000610a31858286016108d5565b9250506020610a42858286016108d5565b9150509250929050565b600082825260208201905092915050565b7f66756e647320617265206c6f7700000000000000000000000000000000000000600082015250565b6000610a93600d83610a4c565b9150610a9e82610a5d565b602082019050919050565b60006020820190508181036000830152610ac281610a86565b9050919050565b7f4e487b7100000000000000000000000000000000000000000000000000000000600052601160045260246000fd5b6000610b0382610853565b9150610b0e83610853565b9250828203905081811115610b2657610b25610ac9565b5b92915050565b6000610b3782610853565b9150610b4283610853565b9250828201905080821115610b5a57610b59610ac9565b5b92915050565b7f46756e647320617265206c6f7700000000000000000000000000000000000000600082015250565b6000610b96600d83610a4c565b9150610ba182610b60565b602082019050919050565b60006020820190508181036000830152610bc581610b89565b9050919050565b7f5468652066756e647320617265206c6f77000000000000000000000000000000600082015250565b6000610c02601183610a4c565b9150610c0d82610bcc565b602082019050919050565b60006020820190508181036000830152610c3181610bf5565b905091905056fea264697066735822122055070512c9432e2b6d4a31fbb175d6d83f77a22a3d6f3eb6088295fa933f219664736f6c63430008110033",
  "immutableReferences": {},
  "source": "//SPDX-License-Identifier: Unlicense\r\npragma solidity ^0.8.0;\r\n\r\ninterface ERC20 {\r\n    function totalSupply() external  view returns (uint256);\r\n    function balanceOf(address account) external view returns (uint256);\r\n    function transfer(address recepient, uint256 amount) external returns (bool);\r\n    function transferFrom(address sender,address recepient,uint256 amount) external  returns (bool);\r\n    function approval (address spender, uint256 amount) external returns (bool);\r\n    function allowance (address owner, address spender) external view returns (uint256);\r\n\r\n    event Transfer(address indexed from,address indexed to,uint256);\r\n    event Approval(address indexed owner,address indexed sender,uint256 amount);\r\n}\r\n\r\ncontract FastCoin is ERC20 {\r\n    uint myTokens = 100 * (10 ** 18);\r\n    mapping (address=>uint) private balance;\r\n    mapping (address=>mapping (address=>uint)) private approvalLimit;\r\n\r\n    constructor () {\r\n        balance[msg.sender] += myTokens;\r\n    }\r\n    function totalSupply() external view returns (uint256) {\r\n        return myTokens;\r\n    }\r\n    function balanceOf(address account) external view returns (uint256) {\r\n        return balance[account];\r\n    }\r\n\r\n    function transfer(address recepient, uint256 amount) external returns (bool){\r\n        require(balance[msg.sender]>=amount,\"The funds are low\");\r\n        balance[msg.sender] -= amount;\r\n        balance [recepient] += amount;\r\n        emit Transfer(msg.sender,recepient, amount);\r\n        return true;\r\n    }\r\n\r\n    function approval (address spender, uint256 amount) external returns (bool) {\r\n        require(balance[msg.sender] >=amount, \"Funds are low\");\r\n        approvalLimit[msg.sender][spender] = amount;\r\n        emit Approval(msg.sender,spender,amount);\r\n        return true;\r\n    }\r\n\r\n    function allowance (address owner, address spender) external view returns (uint256){\r\n        return approvalLimit[owner][spender];\r\n    }\r\n\r\n    function transferFrom(address sender,address recepient,uint256 amount) external  returns (bool) {\r\n        require(amount<=balance[sender], \"funds are low\");\r\n        require(amount <= approvalLimit[sender][recepient],\"funds are low\");\r\n        balance[sender] -= amount;\r\n        balance[recepient] += amount;\r\n        approvalLimit[sender][recepient] -= amount;\r\n        emit Transfer(sender,recepient,amount);\r\n        return true;\r\n    }\r\n\r\n\r\n    \r\n}",
  "sourcePath": "C:\\Users\\Hp OMEN\\Desktop\\FAST NU\\Semester 7\\Blockchain\\Project 2\\BlockChain_Project_02\\contracts\\FastCoin.sol",
  "compiler": {
    "name": "solc",
    "version": "0.8.17+commit.8df45f5f.Emscripten.clang"
  },
  "schemaVersion": "3.4.16",
  "updatedAt": "2024-01-06T08:46:36.549Z",
  "devdoc": {
    "kind": "dev",
    "methods": {},
    "version": 1
  },
  "userdoc": {
    "kind": "user",
    "methods": {},
    "version": 1
  }
}