{
  "contractName": "LoyaltyProgram",
  "abi": [
    {
      "inputs": [
        {
          "internalType": "address",
          "name": "_paymentcontract",
          "type": "address"
        }
      ],
      "stateMutability": "nonpayable",
      "type": "constructor"
    },
    {
      "anonymous": false,
      "inputs": [
        {
          "indexed": true,
          "internalType": "address",
          "name": "user",
          "type": "address"
        },
        {
          "indexed": false,
          "internalType": "uint256",
          "name": "points",
          "type": "uint256"
        }
      ],
      "name": "PointsEarned",
      "type": "event"
    },
    {
      "anonymous": false,
      "inputs": [
        {
          "indexed": true,
          "internalType": "address",
          "name": "user",
          "type": "address"
        },
        {
          "indexed": false,
          "internalType": "uint256",
          "name": "points",
          "type": "uint256"
        }
      ],
      "name": "PointsRedeemed",
      "type": "event"
    },
    {
      "anonymous": false,
      "inputs": [
        {
          "indexed": true,
          "internalType": "address",
          "name": "user",
          "type": "address"
        },
        {
          "indexed": false,
          "internalType": "uint256",
          "name": "newTier",
          "type": "uint256"
        }
      ],
      "name": "TierChanged",
      "type": "event"
    },
    {
      "inputs": [],
      "name": "owner",
      "outputs": [
        {
          "internalType": "address",
          "name": "",
          "type": "address"
        }
      ],
      "stateMutability": "view",
      "type": "function",
      "constant": true
    },
    {
      "inputs": [],
      "name": "payment",
      "outputs": [
        {
          "internalType": "address",
          "name": "",
          "type": "address"
        }
      ],
      "stateMutability": "view",
      "type": "function",
      "constant": true
    },
    {
      "inputs": [
        {
          "internalType": "address",
          "name": "",
          "type": "address"
        }
      ],
      "name": "users",
      "outputs": [
        {
          "internalType": "uint256",
          "name": "points",
          "type": "uint256"
        },
        {
          "internalType": "uint256",
          "name": "tier",
          "type": "uint256"
        }
      ],
      "stateMutability": "view",
      "type": "function",
      "constant": true
    },
    {
      "inputs": [
        {
          "internalType": "uint256",
          "name": "price",
          "type": "uint256"
        }
      ],
      "name": "earnPoints",
      "outputs": [],
      "stateMutability": "nonpayable",
      "type": "function"
    },
    {
      "inputs": [
        {
          "internalType": "uint256",
          "name": "points",
          "type": "uint256"
        }
      ],
      "name": "redeemPoints",
      "outputs": [],
      "stateMutability": "nonpayable",
      "type": "function"
    },
    {
      "inputs": [
        {
          "internalType": "address",
          "name": "userAddress",
          "type": "address"
        }
      ],
      "name": "getUserDetails",
      "outputs": [
        {
          "internalType": "uint256",
          "name": "",
          "type": "uint256"
        },
        {
          "internalType": "uint256",
          "name": "",
          "type": "uint256"
        }
      ],
      "stateMutability": "view",
      "type": "function",
      "constant": true
    }
  ],
  "bytecode": "0x608060405234801561001057600080fd5b50604051610e1d380380610e1d8339818101604052810190610032919061011c565b336000806101000a81548173ffffffffffffffffffffffffffffffffffffffff021916908373ffffffffffffffffffffffffffffffffffffffff16021790555080600160006101000a81548173ffffffffffffffffffffffffffffffffffffffff021916908373ffffffffffffffffffffffffffffffffffffffff16021790555050610149565b600080fd5b600073ffffffffffffffffffffffffffffffffffffffff82169050919050565b60006100e9826100be565b9050919050565b6100f9816100de565b811461010457600080fd5b50565b600081519050610116816100f0565b92915050565b600060208284031215610132576101316100b9565b5b600061014084828501610107565b91505092915050565b610cc5806101586000396000f3fe608060405234801561001057600080fd5b50600436106100625760003560e01c806342f6487a1461006757806385932345146100855780638da5cb5b146100a1578063a87430ba146100bf578063cc3d967b146100f0578063e92e92e714610121575b600080fd5b61006f61013d565b60405161007c9190610852565b60405180910390f35b61009f600480360381019061009a91906108a8565b610163565b005b6100a9610228565b6040516100b69190610852565b60405180910390f35b6100d960048036038101906100d49190610901565b61024c565b6040516100e792919061093d565b60405180910390f35b61010a60048036038101906101059190610901565b610270565b60405161011892919061093d565b60405180910390f35b61013b600480360381019061013691906108a8565b610302565b005b600160009054906101000a900473ffffffffffffffffffffffffffffffffffffffff1681565b600060648261017291906109c4565b905080600260003373ffffffffffffffffffffffffffffffffffffffff1673ffffffffffffffffffffffffffffffffffffffff16815260200190815260200160002060000160008282546101c691906109f5565b925050819055503373ffffffffffffffffffffffffffffffffffffffff167f2c4c0dc427a50c4a69d2fc184c47a311acf950d8d2f289fbaee64e83e9b28967826040516102139190610a29565b60405180910390a2610224336104e1565b5050565b60008054906101000a900473ffffffffffffffffffffffffffffffffffffffff1681565b60026020528060005260406000206000915090508060000154908060010154905082565b600080600260008473ffffffffffffffffffffffffffffffffffffffff1673ffffffffffffffffffffffffffffffffffffffff16815260200190815260200160002060000154600260008573ffffffffffffffffffffffffffffffffffffffff1673ffffffffffffffffffffffffffffffffffffffff1681526020019081526020016000206001015491509150915091565b80600260003373ffffffffffffffffffffffffffffffffffffffff1673ffffffffffffffffffffffffffffffffffffffff168152602001908152602001600020600001541015610387576040517f08c379a000000000000000000000000000000000000000000000000000000000815260040161037e90610aa1565b60405180910390fd5b6000600160009054906101000a900473ffffffffffffffffffffffffffffffffffffffff16905081600260003373ffffffffffffffffffffffffffffffffffffffff1673ffffffffffffffffffffffffffffffffffffffff16815260200190815260200160002060000160008282546104009190610ac1565b925050819055508073ffffffffffffffffffffffffffffffffffffffff1663a9059cbb33846040518363ffffffff1660e01b8152600401610442929190610af5565b6020604051808303816000875af1158015610461573d6000803e3d6000fd5b505050506040513d601f19601f820116820180604052508101906104859190610b56565b503373ffffffffffffffffffffffffffffffffffffffff167fc37df5d14f305277c1289e9a188a097cda6684189c95f785feb056cb77a8c910836040516104cc9190610a29565b60405180910390a26104dd336104e1565b5050565b6000600260008373ffffffffffffffffffffffffffffffffffffffff1673ffffffffffffffffffffffffffffffffffffffff168152602001908152602001600020600001549050600181101580156105395750606481105b15610625576001600260008473ffffffffffffffffffffffffffffffffffffffff1673ffffffffffffffffffffffffffffffffffffffff1681526020019081526020016000206001015414610620576001600260008473ffffffffffffffffffffffffffffffffffffffff1673ffffffffffffffffffffffffffffffffffffffff168152602001908152602001600020600101819055508173ffffffffffffffffffffffffffffffffffffffff167fbf6ea7c060c80f162230bb393b03b5511a98ba806495ae06ee31f1454734381f60016040516106179190610bc8565b60405180910390a25b61080d565b60648110158015610636575060c881105b156107205760028060008473ffffffffffffffffffffffffffffffffffffffff1673ffffffffffffffffffffffffffffffffffffffff168152602001908152602001600020600101541461071b5760028060008473ffffffffffffffffffffffffffffffffffffffff1673ffffffffffffffffffffffffffffffffffffffff168152602001908152602001600020600101819055508173ffffffffffffffffffffffffffffffffffffffff167fbf6ea7c060c80f162230bb393b03b5511a98ba806495ae06ee31f1454734381f60026040516107129190610c1e565b60405180910390a25b61080c565b60c8811061080b576003600260008473ffffffffffffffffffffffffffffffffffffffff1673ffffffffffffffffffffffffffffffffffffffff168152602001908152602001600020600101541461080a576003600260008473ffffffffffffffffffffffffffffffffffffffff1673ffffffffffffffffffffffffffffffffffffffff168152602001908152602001600020600101819055508173ffffffffffffffffffffffffffffffffffffffff167fbf6ea7c060c80f162230bb393b03b5511a98ba806495ae06ee31f1454734381f60036040516108019190610c74565b60405180910390a25b5b5b5b5050565b600073ffffffffffffffffffffffffffffffffffffffff82169050919050565b600061083c82610811565b9050919050565b61084c81610831565b82525050565b60006020820190506108676000830184610843565b92915050565b600080fd5b6000819050919050565b61088581610872565b811461089057600080fd5b50565b6000813590506108a28161087c565b92915050565b6000602082840312156108be576108bd61086d565b5b60006108cc84828501610893565b91505092915050565b6108de81610831565b81146108e957600080fd5b50565b6000813590506108fb816108d5565b92915050565b6000602082840312156109175761091661086d565b5b6000610925848285016108ec565b91505092915050565b61093781610872565b82525050565b6000604082019050610952600083018561092e565b61095f602083018461092e565b9392505050565b7f4e487b7100000000000000000000000000000000000000000000000000000000600052601260045260246000fd5b7f4e487b7100000000000000000000000000000000000000000000000000000000600052601160045260246000fd5b60006109cf82610872565b91506109da83610872565b9250826109ea576109e9610966565b5b828204905092915050565b6000610a0082610872565b9150610a0b83610872565b9250828201905080821115610a2357610a22610995565b5b92915050565b6000602082019050610a3e600083018461092e565b92915050565b600082825260208201905092915050565b7f496e73756666696369656e7420706f696e747300000000000000000000000000600082015250565b6000610a8b601383610a44565b9150610a9682610a55565b602082019050919050565b60006020820190508181036000830152610aba81610a7e565b9050919050565b6000610acc82610872565b9150610ad783610872565b9250828203905081811115610aef57610aee610995565b5b92915050565b6000604082019050610b0a6000830185610843565b610b17602083018461092e565b9392505050565b60008115159050919050565b610b3381610b1e565b8114610b3e57600080fd5b50565b600081519050610b5081610b2a565b92915050565b600060208284031215610b6c57610b6b61086d565b5b6000610b7a84828501610b41565b91505092915050565b6000819050919050565b6000819050919050565b6000610bb2610bad610ba884610b83565b610b8d565b610872565b9050919050565b610bc281610b97565b82525050565b6000602082019050610bdd6000830184610bb9565b92915050565b6000819050919050565b6000610c08610c03610bfe84610be3565b610b8d565b610872565b9050919050565b610c1881610bed565b82525050565b6000602082019050610c336000830184610c0f565b92915050565b6000819050919050565b6000610c5e610c59610c5484610c39565b610b8d565b610872565b9050919050565b610c6e81610c43565b82525050565b6000602082019050610c896000830184610c65565b9291505056fea26469706673582212204658d30c45a4c85e47d5168c14ea680088978d7427b3484a8366bc0d7e42de4c64736f6c63430008110033",
  "immutableReferences": {},
  "source": "// SPDX-License-Identifier: MIT\r\npragma solidity ^0.8.0;\r\nimport \"./FastCoin.sol\";\r\n\r\ncontract LoyaltyProgram {\r\n    address public owner;\r\n    address public payment;\r\n    // User structure to store user information\r\n    struct User {\r\n        uint256 points;\r\n        uint256 tier;\r\n    }\r\n\r\n    // Mapping to store user details\r\n    mapping(address => User) public users;\r\n    // Event emitted when a user earns points\r\n    event PointsEarned(address indexed user, uint256 points);\r\n    // Event emitted when a user redeems points\r\n    event PointsRedeemed(address indexed user, uint256 points);\r\n    // Event emitted when a user advances to a new tier\r\n    event TierChanged(address indexed user, uint256 newTier);\r\n\r\n    // Constructor to set the contract owner\r\n    constructor(address _paymentcontract) {\r\n        owner = msg.sender;\r\n        payment = _paymentcontract;\r\n    }\r\n\r\n    // Modifier to restrict access to the contract owner\r\n    modifier onlyOwner() {\r\n        require(\r\n            msg.sender == owner,\r\n            \"Only the contract owner can call this function\"\r\n        );\r\n        _;\r\n    }\r\n\r\n    // Function to allow users to earn points\r\n    function earnPoints(uint256 price) external {\r\n        uint256 points = price / 100;\r\n        users[msg.sender].points += points;\r\n        emit PointsEarned(msg.sender, points);\r\n\r\n        // Check if the user should advance to a new tier\r\n        checkTier(msg.sender);\r\n    }\r\n\r\n    // Function to allow users to redeem points for rewards\r\n    function redeemPoints(uint256 points) external {\r\n        require(users[msg.sender].points >= points, \"Insufficient points\");\r\n        FastCoin paymentcontract = FastCoin(payment);\r\n        users[msg.sender].points -= points;\r\n        paymentcontract.transfer(msg.sender, points);\r\n        emit PointsRedeemed(msg.sender, points);\r\n\r\n        // Check if the user should advance to a new tier\r\n        checkTier(msg.sender);\r\n    }\r\n\r\n    // Function to check and update the user's tier based on points\r\n    function checkTier(address userAddress) internal {\r\n        uint256 currentPoints = users[userAddress].points;\r\n        if (currentPoints >= 1 && currentPoints < 100) {\r\n            // Bronze tier\r\n            if (users[userAddress].tier != 1) {\r\n                users[userAddress].tier = 1;\r\n                emit TierChanged(userAddress, 1);\r\n            }\r\n        } else if (currentPoints >= 100 && currentPoints < 200) {\r\n            // Silver tier\r\n            if (users[userAddress].tier != 2) {\r\n                users[userAddress].tier = 2;\r\n                emit TierChanged(userAddress, 2);\r\n            }\r\n        } else if (currentPoints >= 200) {\r\n            // Gold tier\r\n            if (users[userAddress].tier != 3) {\r\n                users[userAddress].tier = 3;\r\n                emit TierChanged(userAddress, 3);\r\n            }\r\n        }\r\n    }\r\n\r\n    // Function to get user details\r\n    function getUserDetails(\r\n        address userAddress\r\n    ) external view returns (uint256, uint256) {\r\n        return (users[userAddress].points, users[userAddress].tier);\r\n    }\r\n}\r\n",
  "sourcePath": "C:\\Users\\huzai\\OneDrive\\Desktop\\6th Sem\\BlockChain\\ERC20_with_truffle\\contracts\\LoyaltyContract.sol",
  "compiler": {
    "name": "solc",
    "version": "0.8.17+commit.8df45f5f.Emscripten.clang"
  },
  "schemaVersion": "3.4.16",
  "updatedAt": "2024-01-04T13:38:26.285Z",
  "networkType": "ethereum",
  "devdoc": {
    "kind": "dev",
    "methods": {},
    "version": 1
  },
  "userdoc": {
    "kind": "user",
    "methods": {},
    "version": 1
  }
}