{
  "contractName": "Menu_Management",
  "abi": [
    {
      "inputs": [],
      "stateMutability": "nonpayable",
      "type": "constructor"
    },
    {
      "inputs": [
        {
          "internalType": "string",
          "name": "",
          "type": "string"
        }
      ],
      "name": "menu",
      "outputs": [
        {
          "internalType": "string",
          "name": "name",
          "type": "string"
        },
        {
          "internalType": "uint256",
          "name": "price",
          "type": "uint256"
        },
        {
          "internalType": "uint256",
          "name": "availability",
          "type": "uint256"
        }
      ],
      "stateMutability": "view",
      "type": "function"
    },
    {
      "inputs": [
        {
          "internalType": "uint256",
          "name": "",
          "type": "uint256"
        }
      ],
      "name": "menuItemArr",
      "outputs": [
        {
          "internalType": "string",
          "name": "",
          "type": "string"
        }
      ],
      "stateMutability": "view",
      "type": "function"
    },
    {
      "inputs": [
        {
          "internalType": "string",
          "name": "_name",
          "type": "string"
        },
        {
          "internalType": "uint256",
          "name": "_price",
          "type": "uint256"
        },
        {
          "internalType": "uint256",
          "name": "_availability",
          "type": "uint256"
        }
      ],
      "name": "addItems",
      "outputs": [],
      "stateMutability": "nonpayable",
      "type": "function"
    },
    {
      "inputs": [
        {
          "internalType": "string",
          "name": "_name",
          "type": "string"
        },
        {
          "internalType": "uint256",
          "name": "_price",
          "type": "uint256"
        },
        {
          "internalType": "uint256",
          "name": "_availability",
          "type": "uint256"
        }
      ],
      "name": "updateItem",
      "outputs": [],
      "stateMutability": "nonpayable",
      "type": "function"
    },
    {
      "inputs": [
        {
          "internalType": "string",
          "name": "_name",
          "type": "string"
        }
      ],
      "name": "viewAvailability",
      "outputs": [
        {
          "internalType": "uint256",
          "name": "",
          "type": "uint256"
        }
      ],
      "stateMutability": "view",
      "type": "function"
    },
    {
      "inputs": [],
      "name": "displayMenu",
      "outputs": [
        {
          "internalType": "string[]",
          "name": "",
          "type": "string[]"
        },
        {
          "internalType": "uint256[]",
          "name": "",
          "type": "uint256[]"
        },
        {
          "internalType": "uint256[]",
          "name": "",
          "type": "uint256[]"
        }
      ],
      "stateMutability": "view",
      "type": "function"
    }
  ],
  "bytecode": "0x608060405234801561001057600080fd5b50336000806101000a81548173ffffffffffffffffffffffffffffffffffffffff021916908373ffffffffffffffffffffffffffffffffffffffff1602179055506113c1806100606000396000f3fe608060405234801561001057600080fd5b50600436106100625760003560e01c80631f6b79171461006757806331332cbe146100875780634e3d9d83146100a35780638069adad146100d55780638585ccc614610105578063e6e6ae6f14610135575b600080fd5b61006f610151565b60405161007e93929190610af6565b60405180910390f35b6100a1600480360381019061009c9190610cb7565b610468565b005b6100bd60048036038101906100b89190610d26565b6105fa565b6040516100cc93929190610dc8565b60405180910390f35b6100ef60048036038101906100ea9190610d26565b6106c2565b6040516100fc9190610e06565b60405180910390f35b61011f600480360381019061011a9190610e21565b6106ed565b60405161012c9190610e4e565b60405180910390f35b61014f600480360381019061014a9190610cb7565b610799565b005b60608060606000600280549050905060008167ffffffffffffffff81111561017c5761017b610b60565b5b6040519080825280602002602001820160405280156101af57816020015b606081526020019060019003908161019a5790505b50905060008267ffffffffffffffff8111156101ce576101cd610b60565b5b6040519080825280602002602001820160405280156101fc5781602001602082028036833780820191505090505b50905060008367ffffffffffffffff81111561021b5761021a610b60565b5b6040519080825280602002602001820160405280156102495781602001602082028036833780820191505090505b50905060005b848110156104555760006002828154811061026d5761026c610e70565b5b90600052602060002001805461028290610ece565b80601f01602080910402602001604051908101604052809291908181526020018280546102ae90610ece565b80156102fb5780601f106102d0576101008083540402835291602001916102fb565b820191906000526020600020905b8154815290600101906020018083116102de57829003601f168201915b5050505050905060006001826040516103149190610f3b565b908152602001604051809103902060405180606001604052908160008201805461033d90610ece565b80601f016020809104026020016040519081016040528092919081815260200182805461036990610ece565b80156103b65780601f1061038b576101008083540402835291602001916103b6565b820191906000526020600020905b81548152906001019060200180831161039957829003601f168201915b5050505050815260200160018201548152602001600282015481525050905080600001518684815181106103ed576103ec610e70565b5b602002602001018190525080602001518584815181106104105761040f610e70565b5b602002602001018181525050806040015184848151811061043457610433610e70565b5b6020026020010181815250505050808061044d90610f81565b91505061024f565b5082828296509650965050505050909192565b60008054906101000a900473ffffffffffffffffffffffffffffffffffffffff1673ffffffffffffffffffffffffffffffffffffffff163373ffffffffffffffffffffffffffffffffffffffff16146104f6576040517f08c379a00000000000000000000000000000000000000000000000000000000081526004016104ed90611015565b60405180910390fd5b60006001846040516105089190610f3b565b9081526020016040518091039020600101541461055a576040517f08c379a000000000000000000000000000000000000000000000000000000000815260040161055190611081565b60405180910390fd5b6040518060600160405280848152602001838152602001828152506001846040516105859190610f3b565b908152602001604051809103902060008201518160000190816105a8919061124d565b5060208201518160010155604082015181600201559050506002839080600181540180825580915050600190039060005260206000200160009091909190915090816105f4919061124d565b50505050565b60018180516020810182018051848252602083016020850120818352809550505050505060009150905080600001805461063390610ece565b80601f016020809104026020016040519081016040528092919081815260200182805461065f90610ece565b80156106ac5780601f10610681576101008083540402835291602001916106ac565b820191906000526020600020905b81548152906001019060200180831161068f57829003601f168201915b5050505050908060010154908060020154905083565b60006001826040516106d49190610f3b565b9081526020016040518091039020600201549050919050565b600281815481106106fd57600080fd5b90600052602060002001600091509050805461071890610ece565b80601f016020809104026020016040519081016040528092919081815260200182805461074490610ece565b80156107915780601f1061076657610100808354040283529160200191610791565b820191906000526020600020905b81548152906001019060200180831161077457829003601f168201915b505050505081565b60008054906101000a900473ffffffffffffffffffffffffffffffffffffffff1673ffffffffffffffffffffffffffffffffffffffff163373ffffffffffffffffffffffffffffffffffffffff1614610827576040517f08c379a000000000000000000000000000000000000000000000000000000000815260040161081e90611015565b60405180910390fd5b60006001846040516108399190610f3b565b9081526020016040518091039020600101540361088b576040517f08c379a00000000000000000000000000000000000000000000000000000000081526004016108829061136b565b60405180910390fd5b8160018460405161089c9190610f3b565b908152602001604051809103902060010181905550806001846040516108c29190610f3b565b908152602001604051809103902060020181905550505050565b600081519050919050565b600082825260208201905092915050565b6000819050602082019050919050565b600081519050919050565b600082825260208201905092915050565b60005b83811015610942578082015181840152602081019050610927565b60008484015250505050565b6000601f19601f8301169050919050565b600061096a82610908565b6109748185610913565b9350610984818560208601610924565b61098d8161094e565b840191505092915050565b60006109a4838361095f565b905092915050565b6000602082019050919050565b60006109c4826108dc565b6109ce81856108e7565b9350836020820285016109e0856108f8565b8060005b85811015610a1c57848403895281516109fd8582610998565b9450610a08836109ac565b925060208a019950506001810190506109e4565b50829750879550505050505092915050565b600081519050919050565b600082825260208201905092915050565b6000819050602082019050919050565b6000819050919050565b610a6d81610a5a565b82525050565b6000610a7f8383610a64565b60208301905092915050565b6000602082019050919050565b6000610aa382610a2e565b610aad8185610a39565b9350610ab883610a4a565b8060005b83811015610ae9578151610ad08882610a73565b9750610adb83610a8b565b925050600181019050610abc565b5085935050505092915050565b60006060820190508181036000830152610b1081866109b9565b90508181036020830152610b248185610a98565b90508181036040830152610b388184610a98565b9050949350505050565b6000604051905090565b600080fd5b600080fd5b600080fd5b600080fd5b7f4e487b7100000000000000000000000000000000000000000000000000000000600052604160045260246000fd5b610b988261094e565b810181811067ffffffffffffffff82111715610bb757610bb6610b60565b5b80604052505050565b6000610bca610b42565b9050610bd68282610b8f565b919050565b600067ffffffffffffffff821115610bf657610bf5610b60565b5b610bff8261094e565b9050602081019050919050565b82818337600083830152505050565b6000610c2e610c2984610bdb565b610bc0565b905082815260208101848484011115610c4a57610c49610b5b565b5b610c55848285610c0c565b509392505050565b600082601f830112610c7257610c71610b56565b5b8135610c82848260208601610c1b565b91505092915050565b610c9481610a5a565b8114610c9f57600080fd5b50565b600081359050610cb181610c8b565b92915050565b600080600060608486031215610cd057610ccf610b4c565b5b600084013567ffffffffffffffff811115610cee57610ced610b51565b5b610cfa86828701610c5d565b9350506020610d0b86828701610ca2565b9250506040610d1c86828701610ca2565b9150509250925092565b600060208284031215610d3c57610d3b610b4c565b5b600082013567ffffffffffffffff811115610d5a57610d59610b51565b5b610d6684828501610c5d565b91505092915050565b600082825260208201905092915050565b6000610d8b82610908565b610d958185610d6f565b9350610da5818560208601610924565b610dae8161094e565b840191505092915050565b610dc281610a5a565b82525050565b60006060820190508181036000830152610de28186610d80565b9050610df16020830185610db9565b610dfe6040830184610db9565b949350505050565b6000602082019050610e1b6000830184610db9565b92915050565b600060208284031215610e3757610e36610b4c565b5b6000610e4584828501610ca2565b91505092915050565b60006020820190508181036000830152610e688184610d80565b905092915050565b7f4e487b7100000000000000000000000000000000000000000000000000000000600052603260045260246000fd5b7f4e487b7100000000000000000000000000000000000000000000000000000000600052602260045260246000fd5b60006002820490506001821680610ee657607f821691505b602082108103610ef957610ef8610e9f565b5b50919050565b600081905092915050565b6000610f1582610908565b610f1f8185610eff565b9350610f2f818560208601610924565b80840191505092915050565b6000610f478284610f0a565b915081905092915050565b7f4e487b7100000000000000000000000000000000000000000000000000000000600052601160045260246000fd5b6000610f8c82610a5a565b91507fffffffffffffffffffffffffffffffffffffffffffffffffffffffffffffffff8203610fbe57610fbd610f52565b5b600182019050919050565b7f596f7520617265206e6f742043616665204f776e6572203a2800000000000000600082015250565b6000610fff601983610d6f565b915061100a82610fc9565b602082019050919050565b6000602082019050818103600083015261102e81610ff2565b9050919050565b7f4974656d20616c72656164792065786973740000000000000000000000000000600082015250565b600061106b601283610d6f565b915061107682611035565b602082019050919050565b6000602082019050818103600083015261109a8161105e565b9050919050565b60008190508160005260206000209050919050565b60006020601f8301049050919050565b600082821b905092915050565b6000600883026111037fffffffffffffffffffffffffffffffffffffffffffffffffffffffffffffffff826110c6565b61110d86836110c6565b95508019841693508086168417925050509392505050565b6000819050919050565b600061114a61114561114084610a5a565b611125565b610a5a565b9050919050565b6000819050919050565b6111648361112f565b61117861117082611151565b8484546110d3565b825550505050565b600090565b61118d611180565b61119881848461115b565b505050565b5b818110156111bc576111b1600082611185565b60018101905061119e565b5050565b601f821115611201576111d2816110a1565b6111db846110b6565b810160208510156111ea578190505b6111fe6111f6856110b6565b83018261119d565b50505b505050565b600082821c905092915050565b600061122460001984600802611206565b1980831691505092915050565b600061123d8383611213565b9150826002028217905092915050565b61125682610908565b67ffffffffffffffff81111561126f5761126e610b60565b5b6112798254610ece565b6112848282856111c0565b600060209050601f8311600181146112b757600084156112a5578287015190505b6112af8582611231565b865550611317565b601f1984166112c5866110a1565b60005b828110156112ed578489015182556001820191506020850194506020810190506112c8565b8683101561130a5784890151611306601f891682611213565b8355505b6001600288020188555050505b505050505050565b7f4974656d20646f6573206e6f7420657869737400000000000000000000000000600082015250565b6000611355601383610d6f565b91506113608261131f565b602082019050919050565b6000602082019050818103600083015261138481611348565b905091905056fea2646970667358221220096100e885f5f96e736c89a877deb512ef8249a1d3ea6ff64e4c243d2c3224ea64736f6c63430008110033",
  "immutableReferences": {},
  "source": "// SPDX-License-Identifier: MIT\r\npragma solidity ^0.8.0;\r\n\r\ncontract Menu_Management {\r\n    address owner;\r\n    mapping (string => MenuItems) public menu;\r\n    struct MenuItems {\r\n        string name;\r\n        uint256 price;\r\n        uint256 availability;\r\n    }\r\n    string[] public menuItemArr;\r\n    constructor() {\r\n        owner = msg.sender;\r\n    }\r\n\r\n    modifier CafeOwner() {\r\n        require(msg.sender==owner, \"You are not Cafe Owner :(\");\r\n        _;\r\n    }\r\n\r\n    function addItems(string memory _name, uint256 _price, uint256 _availability) external CafeOwner {\r\n        require(menu[_name].price==0, \"Item already exist\");\r\n        menu[_name] = MenuItems(_name,_price,_availability);\r\n        menuItemArr.push(_name);\r\n    }\r\n\r\n    function updateItem(string memory _name, uint256 _price, uint256 _availability) external CafeOwner {\r\n        require(menu[_name].price != 0, \"Item does not exist\");\r\n        menu[_name].price = _price;\r\n        menu[_name].availability = _availability;\r\n    }\r\n\r\n    function viewAvailability(string memory _name) external view returns(uint256){\r\n        return menu[_name].availability;\r\n    } \r\n\r\n    function displayMenu() external view returns (string[] memory,uint256[] memory,uint256[] memory) {\r\n        uint256 menu_length = menuItemArr.length;\r\n        string[] memory name = new string[](menu_length);\r\n        uint256[] memory price = new uint256[](menu_length);\r\n        uint256[] memory availabilitiy = new uint256[](menu_length);\r\n\r\n        for (uint256 i = 0; i < menu_length; i++) {\r\n            string memory itemName = menuItemArr[i];\r\n            MenuItems memory item = menu[itemName];\r\n            name[i] = item.name;\r\n            price[i] = item.price;\r\n            availabilitiy[i] = item.availability;\r\n        }\r\n\r\n        return (name, price, availabilitiy);\r\n\r\n    }\r\n}",
  "sourcePath": "C:\\Users\\Hp OMEN\\Desktop\\FAST NU\\Semester 7\\Blockchain\\Project 2\\BlockChain_Project_02\\contracts\\MenuManagement.sol",
  "compiler": {
    "name": "solc",
    "version": "0.8.17+commit.8df45f5f.Emscripten.clang"
  },
  "schemaVersion": "3.4.16",
  "updatedAt": "2024-01-06T08:46:36.565Z",
  "devdoc": {
    "kind": "dev",
    "methods": {},
    "version": 1
  },
  "userdoc": {
    "kind": "user",
    "methods": {},
    "version": 1
  }
}