{
  "contractName": "Menu_Management",
  "abi": [
    {
      "inputs": [],
      "stateMutability": "nonpayable",
      "type": "constructor"
    },
    {
      "inputs": [
        {
          "internalType": "string",
          "name": "_name",
          "type": "string"
        },
        {
          "internalType": "uint256",
          "name": "_price",
          "type": "uint256"
        },
        {
          "internalType": "bool",
          "name": "_availability",
          "type": "bool"
        }
      ],
      "name": "addItems",
      "outputs": [],
      "stateMutability": "nonpayable",
      "type": "function"
    },
    {
      "inputs": [],
      "name": "displayMenu",
      "outputs": [
        {
          "internalType": "string[]",
          "name": "",
          "type": "string[]"
        },
        {
          "internalType": "uint256[]",
          "name": "",
          "type": "uint256[]"
        },
        {
          "internalType": "bool[]",
          "name": "",
          "type": "bool[]"
        }
      ],
      "stateMutability": "view",
      "type": "function",
      "constant": true
    }
  ],
  "bytecode": "0x608060405234801561001057600080fd5b50336000806101000a81548173ffffffffffffffffffffffffffffffffffffffff021916908373ffffffffffffffffffffffffffffffffffffffff160217905550610f85806100606000396000f3fe608060405234801561001057600080fd5b50600436106100365760003560e01c80631f6b79171461003b578063c71d94441461005b575b600080fd5b610043610077565b60405161005293929190610833565b60405180910390f35b61007560048036038101906100709190610a20565b6103a5565b005b60608060606000600280549050905060008167ffffffffffffffff8111156100a2576100a161089d565b5b6040519080825280602002602001820160405280156100d557816020015b60608152602001906001900390816100c05790505b50905060008267ffffffffffffffff8111156100f4576100f361089d565b5b6040519080825280602002602001820160405280156101225781602001602082028036833780820191505090505b50905060008367ffffffffffffffff8111156101415761014061089d565b5b60405190808252806020026020018201604052801561016f5781602001602082028036833780820191505090505b50905060005b848110156103925760006002828154811061019357610192610a8f565b5b9060005260206000200180546101a890610aed565b80601f01602080910402602001604051908101604052809291908181526020018280546101d490610aed565b80156102215780601f106101f657610100808354040283529160200191610221565b820191906000526020600020905b81548152906001019060200180831161020457829003601f168201915b50505050509050600060018260405161023a9190610b5a565b908152602001604051809103902060405180606001604052908160008201805461026390610aed565b80601f016020809104026020016040519081016040528092919081815260200182805461028f90610aed565b80156102dc5780601f106102b1576101008083540402835291602001916102dc565b820191906000526020600020905b8154815290600101906020018083116102bf57829003601f168201915b50505050508152602001600182015481526020016002820160009054906101000a900460ff1615151515815250509050806000015186848151811061032457610323610a8f565b5b6020026020010181905250806020015185848151811061034757610346610a8f565b5b602002602001018181525050806040015184848151811061036b5761036a610a8f565b5b6020026020010190151590811515815250505050808061038a90610ba0565b915050610175565b5082828296509650965050505050909192565b60008054906101000a900473ffffffffffffffffffffffffffffffffffffffff1673ffffffffffffffffffffffffffffffffffffffff163373ffffffffffffffffffffffffffffffffffffffff1614610433576040517f08c379a000000000000000000000000000000000000000000000000000000000815260040161042a90610c45565b60405180910390fd5b60006001846040516104459190610b5a565b90815260200160405180910390206001015414610497576040517f08c379a000000000000000000000000000000000000000000000000000000000815260040161048e90610cb1565b60405180910390fd5b60405180606001604052808481526020018381526020018215158152506001846040516104c49190610b5a565b908152602001604051809103902060008201518160000190816104e79190610e7d565b506020820151816001015560408201518160020160006101000a81548160ff0219169083151502179055509050506002839080600181540180825580915050600190039060005260206000200160009091909190915090816105499190610e7d565b50505050565b600081519050919050565b600082825260208201905092915050565b6000819050602082019050919050565b600081519050919050565b600082825260208201905092915050565b60005b838110156105b557808201518184015260208101905061059a565b60008484015250505050565b6000601f19601f8301169050919050565b60006105dd8261057b565b6105e78185610586565b93506105f7818560208601610597565b610600816105c1565b840191505092915050565b600061061783836105d2565b905092915050565b6000602082019050919050565b60006106378261054f565b610641818561055a565b9350836020820285016106538561056b565b8060005b8581101561068f5784840389528151610670858261060b565b945061067b8361061f565b925060208a01995050600181019050610657565b50829750879550505050505092915050565b600081519050919050565b600082825260208201905092915050565b6000819050602082019050919050565b6000819050919050565b6106e0816106cd565b82525050565b60006106f283836106d7565b60208301905092915050565b6000602082019050919050565b6000610716826106a1565b61072081856106ac565b935061072b836106bd565b8060005b8381101561075c57815161074388826106e6565b975061074e836106fe565b92505060018101905061072f565b5085935050505092915050565b600081519050919050565b600082825260208201905092915050565b6000819050602082019050919050565b60008115159050919050565b6107aa81610795565b82525050565b60006107bc83836107a1565b60208301905092915050565b6000602082019050919050565b60006107e082610769565b6107ea8185610774565b93506107f583610785565b8060005b8381101561082657815161080d88826107b0565b9750610818836107c8565b9250506001810190506107f9565b5085935050505092915050565b6000606082019050818103600083015261084d818661062c565b90508181036020830152610861818561070b565b9050818103604083015261087581846107d5565b9050949350505050565b6000604051905090565b600080fd5b600080fd5b600080fd5b600080fd5b7f4e487b7100000000000000000000000000000000000000000000000000000000600052604160045260246000fd5b6108d5826105c1565b810181811067ffffffffffffffff821117156108f4576108f361089d565b5b80604052505050565b600061090761087f565b905061091382826108cc565b919050565b600067ffffffffffffffff8211156109335761093261089d565b5b61093c826105c1565b9050602081019050919050565b82818337600083830152505050565b600061096b61096684610918565b6108fd565b90508281526020810184848401111561098757610986610898565b5b610992848285610949565b509392505050565b600082601f8301126109af576109ae610893565b5b81356109bf848260208601610958565b91505092915050565b6109d1816106cd565b81146109dc57600080fd5b50565b6000813590506109ee816109c8565b92915050565b6109fd81610795565b8114610a0857600080fd5b50565b600081359050610a1a816109f4565b92915050565b600080600060608486031215610a3957610a38610889565b5b600084013567ffffffffffffffff811115610a5757610a5661088e565b5b610a638682870161099a565b9350506020610a74868287016109df565b9250506040610a8586828701610a0b565b9150509250925092565b7f4e487b7100000000000000000000000000000000000000000000000000000000600052603260045260246000fd5b7f4e487b7100000000000000000000000000000000000000000000000000000000600052602260045260246000fd5b60006002820490506001821680610b0557607f821691505b602082108103610b1857610b17610abe565b5b50919050565b600081905092915050565b6000610b348261057b565b610b3e8185610b1e565b9350610b4e818560208601610597565b80840191505092915050565b6000610b668284610b29565b915081905092915050565b7f4e487b7100000000000000000000000000000000000000000000000000000000600052601160045260246000fd5b6000610bab826106cd565b91507fffffffffffffffffffffffffffffffffffffffffffffffffffffffffffffffff8203610bdd57610bdc610b71565b5b600182019050919050565b600082825260208201905092915050565b7f596f7520617265206e6f742043616665204f776e6572203a2800000000000000600082015250565b6000610c2f601983610be8565b9150610c3a82610bf9565b602082019050919050565b60006020820190508181036000830152610c5e81610c22565b9050919050565b7f4974656d20616c72656164792065786973740000000000000000000000000000600082015250565b6000610c9b601283610be8565b9150610ca682610c65565b602082019050919050565b60006020820190508181036000830152610cca81610c8e565b9050919050565b60008190508160005260206000209050919050565b60006020601f8301049050919050565b600082821b905092915050565b600060088302610d337fffffffffffffffffffffffffffffffffffffffffffffffffffffffffffffffff82610cf6565b610d3d8683610cf6565b95508019841693508086168417925050509392505050565b6000819050919050565b6000610d7a610d75610d70846106cd565b610d55565b6106cd565b9050919050565b6000819050919050565b610d9483610d5f565b610da8610da082610d81565b848454610d03565b825550505050565b600090565b610dbd610db0565b610dc8818484610d8b565b505050565b5b81811015610dec57610de1600082610db5565b600181019050610dce565b5050565b601f821115610e3157610e0281610cd1565b610e0b84610ce6565b81016020851015610e1a578190505b610e2e610e2685610ce6565b830182610dcd565b50505b505050565b600082821c905092915050565b6000610e5460001984600802610e36565b1980831691505092915050565b6000610e6d8383610e43565b9150826002028217905092915050565b610e868261057b565b67ffffffffffffffff811115610e9f57610e9e61089d565b5b610ea98254610aed565b610eb4828285610df0565b600060209050601f831160018114610ee75760008415610ed5578287015190505b610edf8582610e61565b865550610f47565b601f198416610ef586610cd1565b60005b82811015610f1d57848901518255600182019150602085019450602081019050610ef8565b86831015610f3a5784890151610f36601f891682610e43565b8355505b6001600288020188555050505b50505050505056fea2646970667358221220b3f96dd41b94763e7c087e24e2f677b4dffa5239aa1f5c4d0e0aabf1469e946264736f6c63430008110033",
  "immutableReferences": {},
  "source": "// SPDX-License-Identifier: MIT\r\npragma solidity ^0.8.0;\r\n\r\ncontract Menu_Management {\r\n    address owner;\r\n    mapping (string => MenuItems) private menu;\r\n    struct MenuItems {\r\n        string name;\r\n        uint256 price;\r\n        bool availability;\r\n    }\r\n    string[] private menuItemArr;\r\n    constructor() {\r\n        owner = msg.sender;\r\n    }\r\n\r\n    modifier CafeOwner() {\r\n        require(msg.sender==owner, \"You are not Cafe Owner :(\");\r\n        _;\r\n    }\r\n    function addItems(string memory _name, uint256 _price, bool _availability) external CafeOwner {\r\n        require(menu[_name].price==0, \"Item already exist\");\r\n        menu[_name] = MenuItems(_name,_price,_availability);\r\n        menuItemArr.push(_name);\r\n    }\r\n\r\n    function displayMenu() external view returns (string[] memory,uint256[] memory,bool[] memory) {\r\n        uint256 menu_length = menuItemArr.length;\r\n        string[] memory name = new string[](menu_length);\r\n        uint256[] memory price = new uint256[](menu_length);\r\n        bool[] memory availabilitiy = new bool[](menu_length);\r\n\r\n        for (uint256 i = 0; i < menu_length; i++) {\r\n            string memory itemName = menuItemArr[i];\r\n            MenuItems memory item = menu[itemName];\r\n            name[i] = item.name;\r\n            price[i] = item.price;\r\n            availabilitiy[i] = item.availability;\r\n        }\r\n\r\n        return (name, price, availabilitiy);\r\n\r\n    }\r\n}",
  "sourcePath": "C:\\Users\\huzai\\OneDrive\\Desktop\\6th Sem\\BlockChain\\ERC20_with_truffle\\contracts\\project2.sol",
  "compiler": {
    "name": "solc",
    "version": "0.8.17+commit.8df45f5f.Emscripten.clang"
  },
  "schemaVersion": "3.4.16",
  "updatedAt": "2024-01-03T09:07:59.784Z",
  "networkType": "ethereum",
  "devdoc": {
    "kind": "dev",
    "methods": {},
    "version": 1
  },
  "userdoc": {
    "kind": "user",
    "methods": {},
    "version": 1
  }
}