{
  "contractName": "OrderProcessing",
  "abi": [
    {
      "inputs": [
        {
          "internalType": "address",
          "name": "_menumanagement",
          "type": "address"
        },
        {
          "internalType": "address",
          "name": "_loyaltycontract",
          "type": "address"
        },
        {
          "internalType": "address",
          "name": "_Promotionsanddiscount",
          "type": "address"
        },
        {
          "internalType": "address",
          "name": "_payment",
          "type": "address"
        }
      ],
      "stateMutability": "nonpayable",
      "type": "constructor"
    },
    {
      "inputs": [],
      "name": "loyalty",
      "outputs": [
        {
          "internalType": "address",
          "name": "",
          "type": "address"
        }
      ],
      "stateMutability": "view",
      "type": "function"
    },
    {
      "inputs": [],
      "name": "menuAddress",
      "outputs": [
        {
          "internalType": "address",
          "name": "",
          "type": "address"
        }
      ],
      "stateMutability": "view",
      "type": "function"
    },
    {
      "inputs": [],
      "name": "payment",
      "outputs": [
        {
          "internalType": "address",
          "name": "",
          "type": "address"
        }
      ],
      "stateMutability": "view",
      "type": "function"
    },
    {
      "inputs": [],
      "name": "promotionsanddiscount",
      "outputs": [
        {
          "internalType": "address",
          "name": "",
          "type": "address"
        }
      ],
      "stateMutability": "view",
      "type": "function"
    },
    {
      "inputs": [
        {
          "internalType": "string",
          "name": "itemname",
          "type": "string"
        },
        {
          "internalType": "uint256",
          "name": "quantity",
          "type": "uint256"
        }
      ],
      "name": "placeOrder",
      "outputs": [
        {
          "internalType": "string",
          "name": "",
          "type": "string"
        }
      ],
      "stateMutability": "nonpayable",
      "type": "function"
    }
  ],
  "bytecode": "0x60806040523480156200001157600080fd5b5060405162000f5038038062000f508339818101604052810190620000379190620001ef565b336000806101000a81548173ffffffffffffffffffffffffffffffffffffffff021916908373ffffffffffffffffffffffffffffffffffffffff16021790555083600160006101000a81548173ffffffffffffffffffffffffffffffffffffffff021916908373ffffffffffffffffffffffffffffffffffffffff16021790555082600260006101000a81548173ffffffffffffffffffffffffffffffffffffffff021916908373ffffffffffffffffffffffffffffffffffffffff16021790555081600360006101000a81548173ffffffffffffffffffffffffffffffffffffffff021916908373ffffffffffffffffffffffffffffffffffffffff16021790555080600460006101000a81548173ffffffffffffffffffffffffffffffffffffffff021916908373ffffffffffffffffffffffffffffffffffffffff1602179055505050505062000261565b600080fd5b600073ffffffffffffffffffffffffffffffffffffffff82169050919050565b6000620001b7826200018a565b9050919050565b620001c981620001aa565b8114620001d557600080fd5b50565b600081519050620001e981620001be565b92915050565b600080600080608085870312156200020c576200020b62000185565b5b60006200021c87828801620001d8565b94505060206200022f87828801620001d8565b93505060406200024287828801620001d8565b92505060606200025587828801620001d8565b91505092959194509250565b610cdf80620002716000396000f3fe608060405234801561001057600080fd5b50600436106100575760003560e01c806342f6487a1461005c5780638d16a6941461007a578063a1b6e83614610098578063ece8bd8e146100c8578063fa7d76e1146100e6575b600080fd5b610064610104565b60405161007191906106c4565b60405180910390f35b61008261012a565b60405161008f91906106c4565b60405180910390f35b6100b260048036038101906100ad919061086f565b610150565b6040516100bf919061094a565b60405180910390f35b6100d0610637565b6040516100dd91906106c4565b60405180910390f35b6100ee61065d565b6040516100fb91906106c4565b60405180910390f35b600460009054906101000a900473ffffffffffffffffffffffffffffffffffffffff1681565b600260009054906101000a900473ffffffffffffffffffffffffffffffffffffffff1681565b60606000600160009054906101000a900473ffffffffffffffffffffffffffffffffffffffff1690506000600460009054906101000a900473ffffffffffffffffffffffffffffffffffffffff16905060008060008473ffffffffffffffffffffffffffffffffffffffff16634e3d9d83896040518263ffffffff1660e01b81526004016101de919061094a565b600060405180830381865afa1580156101fb573d6000803e3d6000fd5b505050506040513d6000823e3d601f19601f8201168201806040525081019061022491906109f1565b92509250925060008111610274576040518060400160405280601281526020017f4974656d206f7574206f662073746f636b21000000000000000000000000000081525095505050505050610631565b818473ffffffffffffffffffffffffffffffffffffffff166370a08231336040518263ffffffff1660e01b81526004016102ae91906106c4565b602060405180830381865afa1580156102cb573d6000803e3d6000fd5b505050506040513d601f19601f820116820180604052508101906102ef9190610a60565b1015610337576040518060400160405280601681526020017f4e6f7420656e6f756768204661737420436f696e73210000000000000000000081525095505050505050610631565b6000600560003373ffffffffffffffffffffffffffffffffffffffff1673ffffffffffffffffffffffffffffffffffffffff168152602001908152602001600020846040516103869190610ac9565b908152602001604051809103902054036103ff5786600560003373ffffffffffffffffffffffffffffffffffffffff1673ffffffffffffffffffffffffffffffffffffffff168152602001908152602001600020846040516103e89190610ac9565b908152602001604051809103902081905550610472565b86600560003373ffffffffffffffffffffffffffffffffffffffff1673ffffffffffffffffffffffffffffffffffffffff1681526020019081526020016000208460405161044d9190610ac9565b9081526020016040518091039020600082825461046a9190610b0f565b925050819055505b600082886104809190610b43565b90508473ffffffffffffffffffffffffffffffffffffffff1663a9059cbb60008054906101000a900473ffffffffffffffffffffffffffffffffffffffff16836040518363ffffffff1660e01b81526004016104dd929190610b94565b6020604051808303816000875af11580156104fc573d6000803e3d6000fd5b505050506040513d601f19601f820116820180604052508101906105209190610bf5565b61055f576040517f08c379a000000000000000000000000000000000000000000000000000000000815260040161055690610c6e565b60405180910390fd5b6000600260009054906101000a900473ffffffffffffffffffffffffffffffffffffffff1690508073ffffffffffffffffffffffffffffffffffffffff166385932345836040518263ffffffff1660e01b81526004016105bf9190610c8e565b600060405180830381600087803b1580156105d957600080fd5b505af11580156105ed573d6000803e3d6000fd5b505050506040518060400160405280600781526020017f53756363657373000000000000000000000000000000000000000000000000008152509750505050505050505b92915050565b600360009054906101000a900473ffffffffffffffffffffffffffffffffffffffff1681565b600160009054906101000a900473ffffffffffffffffffffffffffffffffffffffff1681565b600073ffffffffffffffffffffffffffffffffffffffff82169050919050565b60006106ae82610683565b9050919050565b6106be816106a3565b82525050565b60006020820190506106d960008301846106b5565b92915050565b6000604051905090565b600080fd5b600080fd5b600080fd5b600080fd5b6000601f19601f8301169050919050565b7f4e487b7100000000000000000000000000000000000000000000000000000000600052604160045260246000fd5b610746826106fd565b810181811067ffffffffffffffff821117156107655761076461070e565b5b80604052505050565b60006107786106df565b9050610784828261073d565b919050565b600067ffffffffffffffff8211156107a4576107a361070e565b5b6107ad826106fd565b9050602081019050919050565b82818337600083830152505050565b60006107dc6107d784610789565b61076e565b9050828152602081018484840111156107f8576107f76106f8565b5b6108038482856107ba565b509392505050565b600082601f8301126108205761081f6106f3565b5b81356108308482602086016107c9565b91505092915050565b6000819050919050565b61084c81610839565b811461085757600080fd5b50565b60008135905061086981610843565b92915050565b60008060408385031215610886576108856106e9565b5b600083013567ffffffffffffffff8111156108a4576108a36106ee565b5b6108b08582860161080b565b92505060206108c18582860161085a565b9150509250929050565b600081519050919050565b600082825260208201905092915050565b60005b838110156109055780820151818401526020810190506108ea565b60008484015250505050565b600061091c826108cb565b61092681856108d6565b93506109368185602086016108e7565b61093f816106fd565b840191505092915050565b600060208201905081810360008301526109648184610911565b905092915050565b600061097f61097a84610789565b61076e565b90508281526020810184848401111561099b5761099a6106f8565b5b6109a68482856108e7565b509392505050565b600082601f8301126109c3576109c26106f3565b5b81516109d384826020860161096c565b91505092915050565b6000815190506109eb81610843565b92915050565b600080600060608486031215610a0a57610a096106e9565b5b600084015167ffffffffffffffff811115610a2857610a276106ee565b5b610a34868287016109ae565b9350506020610a45868287016109dc565b9250506040610a56868287016109dc565b9150509250925092565b600060208284031215610a7657610a756106e9565b5b6000610a84848285016109dc565b91505092915050565b600081905092915050565b6000610aa3826108cb565b610aad8185610a8d565b9350610abd8185602086016108e7565b80840191505092915050565b6000610ad58284610a98565b915081905092915050565b7f4e487b7100000000000000000000000000000000000000000000000000000000600052601160045260246000fd5b6000610b1a82610839565b9150610b2583610839565b9250828201905080821115610b3d57610b3c610ae0565b5b92915050565b6000610b4e82610839565b9150610b5983610839565b9250828202610b6781610839565b91508282048414831517610b7e57610b7d610ae0565b5b5092915050565b610b8e81610839565b82525050565b6000604082019050610ba960008301856106b5565b610bb66020830184610b85565b9392505050565b60008115159050919050565b610bd281610bbd565b8114610bdd57600080fd5b50565b600081519050610bef81610bc9565b92915050565b600060208284031215610c0b57610c0a6106e9565b5b6000610c1984828501610be0565b91505092915050565b7f5472616e73666572204661696c65640000000000000000000000000000000000600082015250565b6000610c58600f836108d6565b9150610c6382610c22565b602082019050919050565b60006020820190508181036000830152610c8781610c4b565b9050919050565b6000602082019050610ca36000830184610b85565b9291505056fea26469706673582212207489f693a758302f58a2d127391d1d3280b9a8147ff2bc6ced83b8a2e429546264736f6c63430008110033",
  "immutableReferences": {},
  "source": "//SPDX-License-Identifier: MIT\r\npragma solidity ^0.8.0;\r\nimport \"./LoyaltyContract.sol\";\r\nimport \"./MenuManagement.sol\";\r\nimport \"./promotions.sol\";\r\nimport \"./FastCoin.sol\";\r\n\r\ncontract OrderProcessing{\r\n    address owner;\r\n    address public menuAddress;\r\n    address public loyalty;\r\n    address public promotionsanddiscount;\r\n    address public payment;\r\n\r\n    mapping(address=> mapping(string=>uint)) customerOrders;\r\n\r\n    constructor(address _menumanagement,address _loyaltycontract,address _Promotionsanddiscount, address _payment){\r\n            owner = msg.sender;\r\n            menuAddress = _menumanagement;\r\n            loyalty = _loyaltycontract;\r\n            promotionsanddiscount = _Promotionsanddiscount;\r\n            payment = _payment;\r\n    }\r\n\r\n    function placeOrder(string memory itemname, uint256 quantity) external returns (string memory) {\r\n      Menu_Management obj = Menu_Management(menuAddress);\r\n      FastCoin paymentObj = FastCoin(payment);\r\n      (string memory item_Name, uint256 item_Price, uint256 item_Availability) = obj.menu(itemname);\r\n      if (item_Availability <= 0){\r\n        return (\"Item out of stock!\");\r\n      }\r\n      else if (paymentObj.balanceOf(msg.sender) < item_Price){\r\n        return (\"Not enough Fast Coins!\");\r\n      }\r\n      \r\n      if (customerOrders[msg.sender][item_Name] == 0){\r\n        customerOrders[msg.sender][item_Name] = quantity;\r\n      }\r\n      else{\r\n        customerOrders[msg.sender][item_Name] += quantity;\r\n      }\r\n\r\n      uint256 cost = quantity * item_Price;\r\n      require(paymentObj.transfer(owner, cost), \"Transfer Failed\");\r\n\r\n      LoyaltyProgram loyaltyProgram = LoyaltyProgram(loyalty);\r\n      loyaltyProgram.earnPoints(cost);\r\n      \r\n      return (\"Success\");\r\n    }\r\n}",
  "sourcePath": "C:\\Users\\Hp OMEN\\Desktop\\FAST NU\\Semester 7\\Blockchain\\Project 2\\BlockChain_Project_02\\contracts\\orderprocessing.sol",
  "compiler": {
    "name": "solc",
    "version": "0.8.17+commit.8df45f5f.Emscripten.clang"
  },
  "schemaVersion": "3.4.16",
  "updatedAt": "2024-01-06T08:46:36.574Z",
  "devdoc": {
    "kind": "dev",
    "methods": {},
    "version": 1
  },
  "userdoc": {
    "kind": "user",
    "methods": {},
    "version": 1
  }
}