{
  "contractName": "PromotionsSystem",
  "abi": [
    {
      "inputs": [],
      "stateMutability": "nonpayable",
      "type": "constructor"
    },
    {
      "anonymous": false,
      "inputs": [
        {
          "indexed": false,
          "internalType": "string",
          "name": "productName",
          "type": "string"
        },
        {
          "indexed": false,
          "internalType": "uint256",
          "name": "discountPercentage",
          "type": "uint256"
        },
        {
          "indexed": false,
          "internalType": "uint256",
          "name": "expiryTimestamp",
          "type": "uint256"
        }
      ],
      "name": "PromotionAdded",
      "type": "event"
    },
    {
      "anonymous": false,
      "inputs": [
        {
          "indexed": false,
          "internalType": "string",
          "name": "productName",
          "type": "string"
        }
      ],
      "name": "PromotionRemoved",
      "type": "event"
    },
    {
      "inputs": [],
      "name": "owner",
      "outputs": [
        {
          "internalType": "address",
          "name": "",
          "type": "address"
        }
      ],
      "stateMutability": "view",
      "type": "function",
      "constant": true
    },
    {
      "inputs": [
        {
          "internalType": "string",
          "name": "",
          "type": "string"
        }
      ],
      "name": "promotions",
      "outputs": [
        {
          "internalType": "uint256",
          "name": "discountPercentage",
          "type": "uint256"
        },
        {
          "internalType": "uint256",
          "name": "expiryTimestamp",
          "type": "uint256"
        }
      ],
      "stateMutability": "view",
      "type": "function",
      "constant": true
    },
    {
      "inputs": [
        {
          "internalType": "string",
          "name": "productName",
          "type": "string"
        },
        {
          "internalType": "uint256",
          "name": "discountPercentage",
          "type": "uint256"
        },
        {
          "internalType": "uint256",
          "name": "expiryTimestamp",
          "type": "uint256"
        }
      ],
      "name": "addPromotion",
      "outputs": [],
      "stateMutability": "nonpayable",
      "type": "function"
    },
    {
      "inputs": [
        {
          "internalType": "string",
          "name": "productName",
          "type": "string"
        }
      ],
      "name": "removePromotion",
      "outputs": [],
      "stateMutability": "nonpayable",
      "type": "function"
    },
    {
      "inputs": [
        {
          "internalType": "string",
          "name": "productName",
          "type": "string"
        }
      ],
      "name": "getDiscountPercentage",
      "outputs": [
        {
          "internalType": "uint256",
          "name": "",
          "type": "uint256"
        }
      ],
      "stateMutability": "view",
      "type": "function",
      "constant": true
    }
  ],
  "bytecode": "0x608060405234801561001057600080fd5b50600080546001600160a01b0319163317905561057e806100326000396000f3fe608060405234801561001057600080fd5b50600436106100575760003560e01c8063513a554d1461005c5780638da5cb5b14610071578063a1aacff2146100a1578063ce654d22146100ea578063e145d46c146100fd575b600080fd5b61006f61006a3660046103b8565b61011e565b005b600054610084906001600160a01b031681565b6040516001600160a01b0390911681526020015b60405180910390f35b6100d56100af366004610406565b805160208183018101805160018083529383019290940191909120929052815491015482565b60408051928352602083019190915201610098565b61006f6100f8366004610406565b610232565b61011061010b366004610406565b6102be565b604051908152602001610098565b6000546001600160a01b031633146101515760405162461bcd60e51b815260040161014890610443565b60405180910390fd5b600082118015610162575060648211155b6101ae5760405162461bcd60e51b815260206004820152601b60248201527f496e76616c696420646973636f756e742070657263656e7461676500000000006044820152606401610148565b6040518060400160405280838152602001828152506001846040516101d391906104c1565b9081526040519081900360209081018220835181559201516001909201919091557f5548b2fa20f62894ffeca6b6b5e7c85c94413a9668ff5bf3d1728892f3be93409061022590859085908590610509565b60405180910390a1505050565b6000546001600160a01b0316331461025c5760405162461bcd60e51b815260040161014890610443565b60018160405161026c91906104c1565b90815260405190819003602001812060008082556001909101557f0b5eff19aff6c6fd3ed71ab1c8b630756b323958915df8fd194dc85c5704fddf906102b390839061052e565b60405180910390a150565b6000806001836040516102d191906104c1565b90815260405190819003602001902054111561030d576001826040516102f791906104c1565b9081526040519081900360200190205492915050565b506000919050565b634e487b7160e01b600052604160045260246000fd5b600082601f83011261033c57600080fd5b813567ffffffffffffffff8082111561035757610357610315565b604051601f8301601f19908116603f0116810190828211818310171561037f5761037f610315565b8160405283815286602085880101111561039857600080fd5b836020870160208301376000602085830101528094505050505092915050565b6000806000606084860312156103cd57600080fd5b833567ffffffffffffffff8111156103e457600080fd5b6103f08682870161032b565b9660208601359650604090950135949350505050565b60006020828403121561041857600080fd5b813567ffffffffffffffff81111561042f57600080fd5b61043b8482850161032b565b949350505050565b6020808252602e908201527f4f6e6c792074686520636f6e7472616374206f776e65722063616e2063616c6c60408201526d103a3434b990333ab731ba34b7b760911b606082015260800190565b60005b838110156104ac578181015183820152602001610494565b838111156104bb576000848401525b50505050565b600082516104d3818460208701610491565b9190910192915050565b600081518084526104f5816020860160208601610491565b601f01601f19169290920160200192915050565b60608152600061051c60608301866104dd565b60208301949094525060400152919050565b60208152600061054160208301846104dd565b939250505056fea2646970667358221220a347811b088a9d4c8373d746e741cd506b030521c3d7b4709f45d052da5a2bbc64736f6c634300080b0033",
  "immutableReferences": {},
  "source": "// SPDX-License-Identifier: MIT\r\npragma solidity ^0.8.0;\r\n\r\ncontract PromotionsSystem {\r\n    address public owner;\r\n    \r\n    // Promotion structure to store promotion details\r\n    struct Promotion {\r\n        uint256 discountPercentage;\r\n        uint256 expiryTimestamp; // Optional: Set an expiry time for the promotion\r\n    }\r\n\r\n    // Mapping to store promotions for each product\r\n    mapping(string => Promotion) public promotions;\r\n\r\n    // Event emitted when a new promotion is added\r\n    event PromotionAdded(string productName, uint256 discountPercentage, uint256 expiryTimestamp);\r\n\r\n    // Event emitted when a promotion is removed\r\n    event PromotionRemoved(string productName);\r\n\r\n    // Constructor to set the contract owner\r\n    constructor() {\r\n        owner = msg.sender;\r\n    }\r\n\r\n    // Modifier to restrict access to the contract owner\r\n    modifier onlyOwner() {\r\n        require(msg.sender == owner, \"Only the contract owner can call this function\");\r\n        _;\r\n    }\r\n\r\n    // Function to add a new promotion\r\n    function addPromotion(string memory productName, uint256 discountPercentage, uint256 expiryTimestamp) external onlyOwner {\r\n        require(discountPercentage > 0 && discountPercentage <= 100, \"Invalid discount percentage\");\r\n        promotions[productName] = Promotion(discountPercentage, expiryTimestamp);\r\n        emit PromotionAdded(productName, discountPercentage, expiryTimestamp);\r\n    }\r\n\r\n    // Function to remove a promotion\r\n    function removePromotion(string memory productName) external onlyOwner {\r\n        delete promotions[productName];\r\n        emit PromotionRemoved(productName);\r\n    }\r\n\r\n    // Function to get the discount percentage for a product\r\n    function getDiscountPercentage(string memory productName) external view returns (uint256) {\r\n        if(promotions[productName].discountPercentage > 0){\r\n              return promotions[productName].discountPercentage;\r\n        }\r\n        else{\r\n              return 0;\r\n        }\r\n        \r\n    }\r\n}\r\n\r\n",
  "sourcePath": "C:\\Users\\Hp OMEN\\Desktop\\FAST NU\\Semester 7\\Blockchain\\Project 2\\BlockChain_Project_02\\contracts\\promotions.sol",
  "compiler": {
    "name": "solc",
    "version": "0.8.11+commit.d7f03943.Emscripten.clang"
  },
  "schemaVersion": "3.4.16",
  "updatedAt": "2024-01-06T17:41:39.871Z",
  "networkType": "ethereum",
  "devdoc": {
    "kind": "dev",
    "methods": {},
    "version": 1
  },
  "userdoc": {
    "kind": "user",
    "methods": {},
    "version": 1
  }
}