{
  "contractName": "PromotionsSystem",
  "abi": [
    {
      "inputs": [],
      "stateMutability": "nonpayable",
      "type": "constructor"
    },
    {
      "anonymous": false,
      "inputs": [
        {
          "indexed": false,
          "internalType": "string",
          "name": "productName",
          "type": "string"
        },
        {
          "indexed": false,
          "internalType": "uint256",
          "name": "discountPercentage",
          "type": "uint256"
        },
        {
          "indexed": false,
          "internalType": "uint256",
          "name": "expiryTimestamp",
          "type": "uint256"
        }
      ],
      "name": "PromotionAdded",
      "type": "event"
    },
    {
      "anonymous": false,
      "inputs": [
        {
          "indexed": false,
          "internalType": "string",
          "name": "productName",
          "type": "string"
        }
      ],
      "name": "PromotionRemoved",
      "type": "event"
    },
    {
      "inputs": [],
      "name": "owner",
      "outputs": [
        {
          "internalType": "address",
          "name": "",
          "type": "address"
        }
      ],
      "stateMutability": "view",
      "type": "function"
    },
    {
      "inputs": [
        {
          "internalType": "string",
          "name": "",
          "type": "string"
        }
      ],
      "name": "promotions",
      "outputs": [
        {
          "internalType": "uint256",
          "name": "discountPercentage",
          "type": "uint256"
        },
        {
          "internalType": "uint256",
          "name": "expiryTimestamp",
          "type": "uint256"
        }
      ],
      "stateMutability": "view",
      "type": "function"
    },
    {
      "inputs": [
        {
          "internalType": "string",
          "name": "productName",
          "type": "string"
        },
        {
          "internalType": "uint256",
          "name": "discountPercentage",
          "type": "uint256"
        },
        {
          "internalType": "uint256",
          "name": "expiryTimestamp",
          "type": "uint256"
        }
      ],
      "name": "addPromotion",
      "outputs": [],
      "stateMutability": "nonpayable",
      "type": "function"
    },
    {
      "inputs": [
        {
          "internalType": "string",
          "name": "productName",
          "type": "string"
        }
      ],
      "name": "removePromotion",
      "outputs": [],
      "stateMutability": "nonpayable",
      "type": "function"
    },
    {
      "inputs": [
        {
          "internalType": "string",
          "name": "productName",
          "type": "string"
        }
      ],
      "name": "getDiscountPercentage",
      "outputs": [
        {
          "internalType": "uint256",
          "name": "",
          "type": "uint256"
        }
      ],
      "stateMutability": "view",
      "type": "function"
    }
  ],
  "bytecode": "0x608060405234801561001057600080fd5b50336000806101000a81548173ffffffffffffffffffffffffffffffffffffffff021916908373ffffffffffffffffffffffffffffffffffffffff16021790555061098d806100606000396000f3fe608060405234801561001057600080fd5b50600436106100575760003560e01c8063513a554d1461005c5780638da5cb5b14610078578063a1aacff214610096578063ce654d22146100c7578063e145d46c146100e3575b600080fd5b610076600480360381019061007191906105c0565b610113565b005b61008061027b565b60405161008d9190610670565b60405180910390f35b6100b060048036038101906100ab919061068b565b61029f565b6040516100be9291906106e3565b60405180910390f35b6100e160048036038101906100dc919061068b565b6102d9565b005b6100fd60048036038101906100f8919061068b565b6103d2565b60405161010a919061070c565b60405180910390f35b60008054906101000a900473ffffffffffffffffffffffffffffffffffffffff1673ffffffffffffffffffffffffffffffffffffffff163373ffffffffffffffffffffffffffffffffffffffff16146101a1576040517f08c379a0000000000000000000000000000000000000000000000000000000008152600401610198906107aa565b60405180910390fd5b6000821180156101b2575060648211155b6101f1576040517f08c379a00000000000000000000000000000000000000000000000000000000081526004016101e890610816565b60405180910390fd5b60405180604001604052808381526020018281525060018460405161021691906108a7565b908152602001604051809103902060008201518160000155602082015181600101559050507f5548b2fa20f62894ffeca6b6b5e7c85c94413a9668ff5bf3d1728892f3be934083838360405161026e939291906108f7565b60405180910390a1505050565b60008054906101000a900473ffffffffffffffffffffffffffffffffffffffff1681565b6001818051602081018201805184825260208301602085012081835280955050505050506000915090508060000154908060010154905082565b60008054906101000a900473ffffffffffffffffffffffffffffffffffffffff1673ffffffffffffffffffffffffffffffffffffffff163373ffffffffffffffffffffffffffffffffffffffff1614610367576040517f08c379a000000000000000000000000000000000000000000000000000000000815260040161035e906107aa565b60405180910390fd5b60018160405161037791906108a7565b9081526020016040518091039020600080820160009055600182016000905550507f0b5eff19aff6c6fd3ed71ab1c8b630756b323958915df8fd194dc85c5704fddf816040516103c79190610935565b60405180910390a150565b6000806001836040516103e591906108a7565b90815260200160405180910390206000015411156104265760018260405161040d91906108a7565b908152602001604051809103902060000154905061042b565b600090505b919050565b6000604051905090565b600080fd5b600080fd5b600080fd5b600080fd5b6000601f19601f8301169050919050565b7f4e487b7100000000000000000000000000000000000000000000000000000000600052604160045260246000fd5b6104978261044e565b810181811067ffffffffffffffff821117156104b6576104b561045f565b5b80604052505050565b60006104c9610430565b90506104d5828261048e565b919050565b600067ffffffffffffffff8211156104f5576104f461045f565b5b6104fe8261044e565b9050602081019050919050565b82818337600083830152505050565b600061052d610528846104da565b6104bf565b90508281526020810184848401111561054957610548610449565b5b61055484828561050b565b509392505050565b600082601f83011261057157610570610444565b5b813561058184826020860161051a565b91505092915050565b6000819050919050565b61059d8161058a565b81146105a857600080fd5b50565b6000813590506105ba81610594565b92915050565b6000806000606084860312156105d9576105d861043a565b5b600084013567ffffffffffffffff8111156105f7576105f661043f565b5b6106038682870161055c565b9350506020610614868287016105ab565b9250506040610625868287016105ab565b9150509250925092565b600073ffffffffffffffffffffffffffffffffffffffff82169050919050565b600061065a8261062f565b9050919050565b61066a8161064f565b82525050565b60006020820190506106856000830184610661565b92915050565b6000602082840312156106a1576106a061043a565b5b600082013567ffffffffffffffff8111156106bf576106be61043f565b5b6106cb8482850161055c565b91505092915050565b6106dd8161058a565b82525050565b60006040820190506106f860008301856106d4565b61070560208301846106d4565b9392505050565b600060208201905061072160008301846106d4565b92915050565b600082825260208201905092915050565b7f4f6e6c792074686520636f6e7472616374206f776e65722063616e2063616c6c60008201527f20746869732066756e6374696f6e000000000000000000000000000000000000602082015250565b6000610794602e83610727565b915061079f82610738565b604082019050919050565b600060208201905081810360008301526107c381610787565b9050919050565b7f496e76616c696420646973636f756e742070657263656e746167650000000000600082015250565b6000610800601b83610727565b915061080b826107ca565b602082019050919050565b6000602082019050818103600083015261082f816107f3565b9050919050565b600081519050919050565b600081905092915050565b60005b8381101561086a57808201518184015260208101905061084f565b60008484015250505050565b600061088182610836565b61088b8185610841565b935061089b81856020860161084c565b80840191505092915050565b60006108b38284610876565b915081905092915050565b60006108c982610836565b6108d38185610727565b93506108e381856020860161084c565b6108ec8161044e565b840191505092915050565b6000606082019050818103600083015261091181866108be565b905061092060208301856106d4565b61092d60408301846106d4565b949350505050565b6000602082019050818103600083015261094f81846108be565b90509291505056fea26469706673582212203eb4a0cd375117764c8952bf90538dc43910c9b43674ff1c6a8d19e68b4d252c64736f6c63430008110033",
  "immutableReferences": {},
  "source": "// SPDX-License-Identifier: MIT\r\npragma solidity ^0.8.0;\r\n\r\ncontract PromotionsSystem {\r\n    address public owner;\r\n    \r\n    // Promotion structure to store promotion details\r\n    struct Promotion {\r\n        uint256 discountPercentage;\r\n        uint256 expiryTimestamp; // Optional: Set an expiry time for the promotion\r\n    }\r\n\r\n    // Mapping to store promotions for each product\r\n    mapping(string => Promotion) public promotions;\r\n\r\n    // Event emitted when a new promotion is added\r\n    event PromotionAdded(string productName, uint256 discountPercentage, uint256 expiryTimestamp);\r\n\r\n    // Event emitted when a promotion is removed\r\n    event PromotionRemoved(string productName);\r\n\r\n    // Constructor to set the contract owner\r\n    constructor() {\r\n        owner = msg.sender;\r\n    }\r\n\r\n    // Modifier to restrict access to the contract owner\r\n    modifier onlyOwner() {\r\n        require(msg.sender == owner, \"Only the contract owner can call this function\");\r\n        _;\r\n    }\r\n\r\n    // Function to add a new promotion\r\n    function addPromotion(string memory productName, uint256 discountPercentage, uint256 expiryTimestamp) external onlyOwner {\r\n        require(discountPercentage > 0 && discountPercentage <= 100, \"Invalid discount percentage\");\r\n        promotions[productName] = Promotion(discountPercentage, expiryTimestamp);\r\n        emit PromotionAdded(productName, discountPercentage, expiryTimestamp);\r\n    }\r\n\r\n    // Function to remove a promotion\r\n    function removePromotion(string memory productName) external onlyOwner {\r\n        delete promotions[productName];\r\n        emit PromotionRemoved(productName);\r\n    }\r\n\r\n    // Function to get the discount percentage for a product\r\n    function getDiscountPercentage(string memory productName) external view returns (uint256) {\r\n        if(promotions[productName].discountPercentage > 0){\r\n              return promotions[productName].discountPercentage;\r\n        }\r\n        else{\r\n              return 0;\r\n        }\r\n        \r\n    }\r\n}\r\n\r\n",
  "sourcePath": "C:\\Users\\Hp OMEN\\Desktop\\FAST NU\\Semester 7\\Blockchain\\Project 2\\BlockChain_Project_02\\contracts\\promotions.sol",
  "compiler": {
    "name": "solc",
    "version": "0.8.17+commit.8df45f5f.Emscripten.clang"
  },
  "schemaVersion": "3.4.16",
  "updatedAt": "2024-01-06T08:46:36.581Z",
  "devdoc": {
    "kind": "dev",
    "methods": {},
    "version": 1
  },
  "userdoc": {
    "kind": "user",
    "methods": {},
    "version": 1
  }
}